{
  "contractName": "List",
  "abi": [
    {
      "inputs": [],
      "stateMutability": "nonpayable",
      "type": "constructor"
    },
    {
      "anonymous": false,
      "inputs": [
        {
          "indexed": true,
          "internalType": "address",
          "name": "owner",
          "type": "address"
        },
        {
          "indexed": true,
          "internalType": "address",
          "name": "approved",
          "type": "address"
        },
        {
          "indexed": true,
          "internalType": "uint256",
          "name": "tokenId",
          "type": "uint256"
        }
      ],
      "name": "Approval",
      "type": "event"
    },
    {
      "anonymous": false,
      "inputs": [
        {
          "indexed": true,
          "internalType": "address",
          "name": "owner",
          "type": "address"
        },
        {
          "indexed": true,
          "internalType": "address",
          "name": "operator",
          "type": "address"
        },
        {
          "indexed": false,
          "internalType": "bool",
          "name": "approved",
          "type": "bool"
        }
      ],
      "name": "ApprovalForAll",
      "type": "event"
    },
    {
      "anonymous": false,
      "inputs": [
        {
          "indexed": true,
          "internalType": "address",
          "name": "from",
          "type": "address"
        },
        {
          "indexed": true,
          "internalType": "address",
          "name": "to",
          "type": "address"
        },
        {
          "indexed": true,
          "internalType": "uint256",
          "name": "tokenId",
          "type": "uint256"
        }
      ],
      "name": "Transfer",
      "type": "event"
    },
    {
      "stateMutability": "nonpayable",
      "type": "fallback"
    },
    {
      "inputs": [
        {
          "internalType": "address",
          "name": "to",
          "type": "address"
        },
        {
          "internalType": "uint256",
          "name": "tokenId",
          "type": "uint256"
        }
      ],
      "name": "approve",
      "outputs": [],
      "stateMutability": "nonpayable",
      "type": "function"
    },
    {
      "inputs": [
        {
          "internalType": "address",
          "name": "owner",
          "type": "address"
        }
      ],
      "name": "balanceOf",
      "outputs": [
        {
          "internalType": "uint256",
          "name": "",
          "type": "uint256"
        }
      ],
      "stateMutability": "view",
      "type": "function",
      "constant": true
    },
    {
      "inputs": [
        {
          "internalType": "uint256",
          "name": "",
          "type": "uint256"
        }
      ],
      "name": "donations",
      "outputs": [
        {
          "internalType": "uint256",
          "name": "",
          "type": "uint256"
        }
      ],
      "stateMutability": "view",
      "type": "function",
      "constant": true
    },
    {
      "inputs": [
        {
          "internalType": "uint256",
          "name": "tokenId",
          "type": "uint256"
        }
      ],
      "name": "getApproved",
      "outputs": [
        {
          "internalType": "address",
          "name": "",
          "type": "address"
        }
      ],
      "stateMutability": "view",
      "type": "function",
      "constant": true
    },
    {
      "inputs": [
        {
          "internalType": "address",
          "name": "owner",
          "type": "address"
        },
        {
          "internalType": "address",
          "name": "operator",
          "type": "address"
        }
      ],
      "name": "isApprovedForAll",
      "outputs": [
        {
          "internalType": "bool",
          "name": "",
          "type": "bool"
        }
      ],
      "stateMutability": "view",
      "type": "function",
      "constant": true
    },
    {
      "inputs": [],
      "name": "name",
      "outputs": [
        {
          "internalType": "string",
          "name": "",
          "type": "string"
        }
      ],
      "stateMutability": "view",
      "type": "function",
      "constant": true
    },
    {
      "inputs": [
        {
          "internalType": "uint256",
          "name": "",
          "type": "uint256"
        }
      ],
      "name": "nftletter",
      "outputs": [
        {
          "internalType": "uint256",
          "name": "",
          "type": "uint256"
        }
      ],
      "stateMutability": "view",
      "type": "function",
      "constant": true
    },
    {
      "inputs": [
        {
          "internalType": "uint256",
          "name": "tokenId",
          "type": "uint256"
        }
      ],
      "name": "ownerOf",
      "outputs": [
        {
          "internalType": "address",
          "name": "",
          "type": "address"
        }
      ],
      "stateMutability": "view",
      "type": "function",
      "constant": true
    },
    {
      "inputs": [
        {
          "internalType": "address",
          "name": "from",
          "type": "address"
        },
        {
          "internalType": "address",
          "name": "to",
          "type": "address"
        },
        {
          "internalType": "uint256",
          "name": "tokenId",
          "type": "uint256"
        }
      ],
      "name": "safeTransferFrom",
      "outputs": [],
      "stateMutability": "nonpayable",
      "type": "function"
    },
    {
      "inputs": [
        {
          "internalType": "address",
          "name": "from",
          "type": "address"
        },
        {
          "internalType": "address",
          "name": "to",
          "type": "address"
        },
        {
          "internalType": "uint256",
          "name": "tokenId",
          "type": "uint256"
        },
        {
          "internalType": "bytes",
          "name": "_data",
          "type": "bytes"
        }
      ],
      "name": "safeTransferFrom",
      "outputs": [],
      "stateMutability": "nonpayable",
      "type": "function"
    },
    {
      "inputs": [
        {
          "internalType": "address",
          "name": "operator",
          "type": "address"
        },
        {
          "internalType": "bool",
          "name": "approved",
          "type": "bool"
        }
      ],
      "name": "setApprovalForAll",
      "outputs": [],
      "stateMutability": "nonpayable",
      "type": "function"
    },
    {
      "inputs": [
        {
          "internalType": "bytes4",
          "name": "interfaceId",
          "type": "bytes4"
        }
      ],
      "name": "supportsInterface",
      "outputs": [
        {
          "internalType": "bool",
          "name": "",
          "type": "bool"
        }
      ],
      "stateMutability": "view",
      "type": "function",
      "constant": true
    },
    {
      "inputs": [],
      "name": "symbol",
      "outputs": [
        {
          "internalType": "string",
          "name": "",
          "type": "string"
        }
      ],
      "stateMutability": "view",
      "type": "function",
      "constant": true
    },
    {
      "inputs": [],
      "name": "t",
      "outputs": [
        {
          "internalType": "uint256",
          "name": "",
          "type": "uint256"
        }
      ],
      "stateMutability": "view",
      "type": "function",
      "constant": true
    },
    {
      "inputs": [
        {
          "internalType": "uint256",
          "name": "tokenId",
          "type": "uint256"
        }
      ],
      "name": "tokenURI",
      "outputs": [
        {
          "internalType": "string",
          "name": "",
          "type": "string"
        }
      ],
      "stateMutability": "view",
      "type": "function",
      "constant": true
    },
    {
      "inputs": [
        {
          "internalType": "uint256",
          "name": "",
          "type": "uint256"
        }
      ],
      "name": "tokens",
      "outputs": [
        {
          "internalType": "bytes",
          "name": "",
          "type": "bytes"
        }
      ],
      "stateMutability": "view",
      "type": "function",
      "constant": true
    },
    {
      "inputs": [
        {
          "internalType": "address",
          "name": "from",
          "type": "address"
        },
        {
          "internalType": "address",
          "name": "to",
          "type": "address"
        },
        {
          "internalType": "uint256",
          "name": "tokenId",
          "type": "uint256"
        }
      ],
      "name": "transferFrom",
      "outputs": [],
      "stateMutability": "nonpayable",
      "type": "function"
    },
    {
      "inputs": [
        {
          "internalType": "uint256",
          "name": "",
          "type": "uint256"
        }
      ],
      "name": "userlist",
      "outputs": [
        {
          "internalType": "uint256",
          "name": "",
          "type": "uint256"
        }
      ],
      "stateMutability": "view",
      "type": "function",
      "constant": true
    },
    {
      "inputs": [
        {
          "internalType": "string",
          "name": "_name",
          "type": "string"
        },
        {
          "internalType": "string",
          "name": "_email",
          "type": "string"
        },
        {
          "internalType": "string",
          "name": "_data",
          "type": "string"
        }
      ],
      "name": "makeUser",
      "outputs": [
        {
          "internalType": "bool",
          "name": "",
          "type": "bool"
        }
      ],
      "stateMutability": "nonpayable",
      "type": "function"
    },
    {
      "inputs": [],
      "name": "readUser",
      "outputs": [
        {
          "components": [
            {
              "internalType": "uint256",
              "name": "id",
              "type": "uint256"
            },
            {
              "internalType": "address",
              "name": "userAdr",
              "type": "address"
            },
            {
              "internalType": "string",
              "name": "name",
              "type": "string"
            },
            {
              "internalType": "string",
              "name": "email",
              "type": "string"
            },
            {
              "internalType": "string",
              "name": "data",
              "type": "string"
            }
          ],
          "internalType": "struct List.User",
          "name": "",
          "type": "tuple"
        }
      ],
      "stateMutability": "view",
      "type": "function",
      "constant": true
    },
    {
      "inputs": [
        {
          "internalType": "uint256",
          "name": "_id",
          "type": "uint256"
        }
      ],
      "name": "readToken",
      "outputs": [
        {
          "internalType": "string",
          "name": "",
          "type": "string"
        }
      ],
      "stateMutability": "view",
      "type": "function",
      "constant": true
    },
    {
      "inputs": [],
      "name": "donate",
      "outputs": [
        {
          "internalType": "bool",
          "name": "",
          "type": "bool"
        }
      ],
      "stateMutability": "payable",
      "type": "function",
      "payable": true
    },
    {
      "inputs": [
        {
          "internalType": "address",
          "name": "_a",
          "type": "address"
        },
        {
          "internalType": "string",
          "name": "_data",
          "type": "string"
        }
      ],
      "name": "nftLetter",
      "outputs": [
        {
          "internalType": "bool",
          "name": "",
          "type": "bool"
        }
      ],
      "stateMutability": "nonpayable",
      "type": "function"
    }
  ],
  "bytecode": "0x60806040523480156200001157600080fd5b506040518060400160405280600d81526020017f496d70616374204d61726b6574000000000000000000000000000000000000008152506040518060400160405280600581526020017f494d50435400000000000000000000000000000000000000000000000000000081525081600090805190602001906200009692919062000142565b508060019080519060200190620000af92919062000142565b50505030600c60006101000a81548173ffffffffffffffffffffffffffffffffffffffff021916908373ffffffffffffffffffffffffffffffffffffffff16021790555033600d60006101000a81548173ffffffffffffffffffffffffffffffffffffffff021916908373ffffffffffffffffffffffffffffffffffffffff160217905550600160068190555062000256565b828054620001509062000221565b90600052602060002090601f016020900481019282620001745760008555620001c0565b82601f106200018f57805160ff1916838001178555620001c0565b82800160010185558215620001c0579182015b82811115620001bf578251825591602001919060010190620001a2565b5b509050620001cf9190620001d3565b5090565b5b80821115620001ee576000816000905550600101620001d4565b5090565b7f4e487b7100000000000000000000000000000000000000000000000000000000600052602260045260246000fd5b600060028204905060018216806200023a57607f821691505b60208210810362000250576200024f620001f2565b5b50919050565b6136cf80620002666000396000f3fe6080604052600436106101445760003560e01c806392d0d153116100b6578063c87b56dd1161006f578063c87b56dd146104c6578063d8e136e214610503578063e985e9c514610540578063ed88c68e1461057d578063f61f90c11461059b578063f8626af8146105c657610145565b806392d0d153146103a457806395d89b41146103cf5780639cb87798146103fa578063a22cb46514610437578063a932068814610460578063b88d4fde1461049d57610145565b80632629aecf116101085780632629aecf1461024a57806342842e0e146102875780634f64b2be146102b05780636352211e146102ed57806370a082311461032a5780638ef612641461036757610145565b806301ffc9a71461015357806306fdde0314610190578063081812fc146101bb578063095ea7b3146101f857806323b872dd1461022157610145565b5b34801561015157600080fd5b005b34801561015f57600080fd5b5061017a60048036038101906101759190612314565b610603565b604051610187919061235c565b60405180910390f35b34801561019c57600080fd5b506101a56106e5565b6040516101b29190612410565b60405180910390f35b3480156101c757600080fd5b506101e260048036038101906101dd9190612468565b610777565b6040516101ef91906124d6565b60405180910390f35b34801561020457600080fd5b5061021f600480360381019061021a919061251d565b6107fc565b005b34801561022d57600080fd5b506102486004803603810190610243919061255d565b610913565b005b34801561025657600080fd5b50610271600480360381019061026c91906126e5565b610973565b60405161027e919061235c565b60405180910390f35b34801561029357600080fd5b506102ae60048036038101906102a9919061255d565b610b66565b005b3480156102bc57600080fd5b506102d760048036038101906102d29190612468565b610b86565b6040516102e491906127e1565b60405180910390f35b3480156102f957600080fd5b50610314600480360381019061030f9190612468565b610c26565b60405161032191906124d6565b60405180910390f35b34801561033657600080fd5b50610351600480360381019061034c9190612803565b610cd7565b60405161035e919061283f565b60405180910390f35b34801561037357600080fd5b5061038e60048036038101906103899190612468565b610d8e565b60405161039b919061283f565b60405180910390f35b3480156103b057600080fd5b506103b9610da6565b6040516103c6919061283f565b60405180910390f35b3480156103db57600080fd5b506103e4610dac565b6040516103f19190612410565b60405180910390f35b34801561040657600080fd5b50610421600480360381019061041c919061285a565b610e3e565b60405161042e919061235c565b60405180910390f35b34801561044357600080fd5b5061045e600480360381019061045991906128e2565b610ed1565b005b34801561046c57600080fd5b5061048760048036038101906104829190612468565b610ee7565b6040516104949190612410565b60405180910390f35b3480156104a957600080fd5b506104c460048036038101906104bf91906129c3565b610f8c565b005b3480156104d257600080fd5b506104ed60048036038101906104e89190612468565b610fee565b6040516104fa9190612410565b60405180910390f35b34801561050f57600080fd5b5061052a60048036038101906105259190612468565b611095565b604051610537919061283f565b60405180910390f35b34801561054c57600080fd5b5061056760048036038101906105629190612a46565b6110ad565b604051610574919061235c565b60405180910390f35b610585611141565b604051610592919061235c565b60405180910390f35b3480156105a757600080fd5b506105b0611285565b6040516105bd9190612b72565b60405180910390f35b3480156105d257600080fd5b506105ed60048036038101906105e89190612468565b611520565b6040516105fa919061283f565b60405180910390f35b60007f80ac58cd000000000000000000000000000000000000000000000000000000007bffffffffffffffffffffffffffffffffffffffffffffffffffffffff1916827bffffffffffffffffffffffffffffffffffffffffffffffffffffffff191614806106ce57507f5b5e139f000000000000000000000000000000000000000000000000000000007bffffffffffffffffffffffffffffffffffffffffffffffffffffffff1916827bffffffffffffffffffffffffffffffffffffffffffffffffffffffff1916145b806106de57506106dd82611538565b5b9050919050565b6060600080546106f490612bc3565b80601f016020809104026020016040519081016040528092919081815260200182805461072090612bc3565b801561076d5780601f106107425761010080835404028352916020019161076d565b820191906000526020600020905b81548152906001019060200180831161075057829003601f168201915b5050505050905090565b6000610782826115a2565b6107c1576040517f08c379a00000000000000000000000000000000000000000000000000000000081526004016107b890612c66565b60405180910390fd5b6004600083815260200190815260200160002060009054906101000a900473ffffffffffffffffffffffffffffffffffffffff169050919050565b600061080782610c26565b90508073ffffffffffffffffffffffffffffffffffffffff168373ffffffffffffffffffffffffffffffffffffffff1603610877576040517f08c379a000000000000000000000000000000000000000000000000000000000815260040161086e90612cf8565b60405180910390fd5b8073ffffffffffffffffffffffffffffffffffffffff1661089661160e565b73ffffffffffffffffffffffffffffffffffffffff1614806108c557506108c4816108bf61160e565b6110ad565b5b610904576040517f08c379a00000000000000000000000000000000000000000000000000000000081526004016108fb90612d8a565b60405180910390fd5b61090e8383611616565b505050565b61092461091e61160e565b826116cf565b610963576040517f08c379a000000000000000000000000000000000000000000000000000000000815260040161095a90612e1c565b60405180910390fd5b61096e8383836117ad565b505050565b60008060019050600a6040518060a0016040528060065481526020013373ffffffffffffffffffffffffffffffffffffffff1681526020018781526020018681526020018581525090806001815401808255809150506001900390600052602060002090600502016000909190919091506000820151816000015560208201518160010160006101000a81548173ffffffffffffffffffffffffffffffffffffffff021916908373ffffffffffffffffffffffffffffffffffffffff1602179055506040820151816002019080519060200190610a5192919061213a565b506060820151816003019080519060200190610a6e92919061213a565b506080820151816004019080519060200190610a8b92919061213a565b505050600654600b60003373ffffffffffffffffffffffffffffffffffffffff1673ffffffffffffffffffffffffffffffffffffffff16815260200190815260200160002081905550600854600e6000600654815260200190815260200160002081905550600160066000828254610b039190612e6b565b92505081905550610b173360085485611a13565b826011600060085481526020019081526020016000209080519060200190610b409291906121c0565b50600160086000828254610b549190612e6b565b92505081905550809150509392505050565b610b8183838360405180602001604052806000815250610f8c565b505050565b60116020528060005260406000206000915090508054610ba590612bc3565b80601f0160208091040260200160405190810160405280929190818152602001828054610bd190612bc3565b8015610c1e5780601f10610bf357610100808354040283529160200191610c1e565b820191906000526020600020905b815481529060010190602001808311610c0157829003601f168201915b505050505081565b6000806002600084815260200190815260200160002060009054906101000a900473ffffffffffffffffffffffffffffffffffffffff169050600073ffffffffffffffffffffffffffffffffffffffff168173ffffffffffffffffffffffffffffffffffffffff1603610cce576040517f08c379a0000000000000000000000000000000000000000000000000000000008152600401610cc590612f33565b60405180910390fd5b80915050919050565b60008073ffffffffffffffffffffffffffffffffffffffff168273ffffffffffffffffffffffffffffffffffffffff1603610d47576040517f08c379a0000000000000000000000000000000000000000000000000000000008152600401610d3e90612fc5565b60405180910390fd5b600360008373ffffffffffffffffffffffffffffffffffffffff1673ffffffffffffffffffffffffffffffffffffffff168152602001908152602001600020549050919050565b60106020528060005260406000206000915090505481565b60085481565b606060018054610dbb90612bc3565b80601f0160208091040260200160405190810160405280929190818152602001828054610de790612bc3565b8015610e345780601f10610e0957610100808354040283529160200191610e34565b820191906000526020600020905b815481529060010190602001808311610e1757829003601f168201915b5050505050905090565b6000610e4d8360085484611a13565b816011600060085481526020019081526020016000209080519060200190610e769291906121c0565b5060085460106000600954815260200190815260200160002081905550600160096000828254610ea69190612e6b565b92505081905550600160086000828254610ec09190612e6b565b925050819055506001905092915050565b610ee3610edc61160e565b8383611a6e565b5050565b6060601160008381526020019081526020016000208054610f0790612bc3565b80601f0160208091040260200160405190810160405280929190818152602001828054610f3390612bc3565b8015610f805780601f10610f5557610100808354040283529160200191610f80565b820191906000526020600020905b815481529060010190602001808311610f6357829003601f168201915b50505050509050919050565b610f9d610f9761160e565b836116cf565b610fdc576040517f08c379a0000000000000000000000000000000000000000000000000000000008152600401610fd390612e1c565b60405180910390fd5b610fe884848484611bda565b50505050565b6060610ff9826115a2565b611038576040517f08c379a000000000000000000000000000000000000000000000000000000000815260040161102f90613057565b60405180910390fd5b6000611042611c36565b90506000815111611062576040518060200160405280600081525061108d565b8061106c84611c4d565b60405160200161107d9291906130b3565b6040516020818303038152906040525b915050919050565b600e6020528060005260406000206000915090505481565b6000600560008473ffffffffffffffffffffffffffffffffffffffff1673ffffffffffffffffffffffffffffffffffffffff16815260200190815260200160002060008373ffffffffffffffffffffffffffffffffffffffff1673ffffffffffffffffffffffffffffffffffffffff16815260200190815260200160002060009054906101000a900460ff16905092915050565b600066038d7ea4c6800034101561118d576040517f08c379a000000000000000000000000000000000000000000000000000000000815260040161118490613123565b60405180910390fd5b6111cf336008546040518060400160405280600981526020017f6920646f6e617465640000000000000000000000000000000000000000000000815250611a13565b6040518060400160405280600981526020017f6920646f6e617465640000000000000000000000000000000000000000000000815250601160006008548152602001908152602001600020908051906020019061122d9291906121c0565b50600854600f600060075481526020019081526020016000208190555060016007600082825461125d9190612e6b565b925050819055506001600860008282546112779190612e6b565b925050819055506001905090565b61128d612246565b600a6001600b60003373ffffffffffffffffffffffffffffffffffffffff1673ffffffffffffffffffffffffffffffffffffffff168152602001908152602001600020546112db9190613143565b815481106112ec576112eb613177565b5b90600052602060002090600502016040518060a0016040529081600082015481526020016001820160009054906101000a900473ffffffffffffffffffffffffffffffffffffffff1673ffffffffffffffffffffffffffffffffffffffff1673ffffffffffffffffffffffffffffffffffffffff16815260200160028201805461137590612bc3565b80601f01602080910402602001604051908101604052809291908181526020018280546113a190612bc3565b80156113ee5780601f106113c3576101008083540402835291602001916113ee565b820191906000526020600020905b8154815290600101906020018083116113d157829003601f168201915b5050505050815260200160038201805461140790612bc3565b80601f016020809104026020016040519081016040528092919081815260200182805461143390612bc3565b80156114805780601f1061145557610100808354040283529160200191611480565b820191906000526020600020905b81548152906001019060200180831161146357829003601f168201915b5050505050815260200160048201805461149990612bc3565b80601f01602080910402602001604051908101604052809291908181526020018280546114c590612bc3565b80156115125780601f106114e757610100808354040283529160200191611512565b820191906000526020600020905b8154815290600101906020018083116114f557829003601f168201915b505050505081525050905090565b600f6020528060005260406000206000915090505481565b60007f01ffc9a7000000000000000000000000000000000000000000000000000000007bffffffffffffffffffffffffffffffffffffffffffffffffffffffff1916827bffffffffffffffffffffffffffffffffffffffffffffffffffffffff1916149050919050565b60008073ffffffffffffffffffffffffffffffffffffffff166002600084815260200190815260200160002060009054906101000a900473ffffffffffffffffffffffffffffffffffffffff1673ffffffffffffffffffffffffffffffffffffffff1614159050919050565b600033905090565b816004600083815260200190815260200160002060006101000a81548173ffffffffffffffffffffffffffffffffffffffff021916908373ffffffffffffffffffffffffffffffffffffffff160217905550808273ffffffffffffffffffffffffffffffffffffffff1661168983610c26565b73ffffffffffffffffffffffffffffffffffffffff167f8c5be1e5ebec7d5bd14f71427d1e84f3dd0314c0f7b2291e5b200ac8c7c3b92560405160405180910390a45050565b60006116da826115a2565b611719576040517f08c379a000000000000000000000000000000000000000000000000000000000815260040161171090613218565b60405180910390fd5b600061172483610c26565b90508073ffffffffffffffffffffffffffffffffffffffff168473ffffffffffffffffffffffffffffffffffffffff16148061179357508373ffffffffffffffffffffffffffffffffffffffff1661177b84610777565b73ffffffffffffffffffffffffffffffffffffffff16145b806117a457506117a381856110ad565b5b91505092915050565b8273ffffffffffffffffffffffffffffffffffffffff166117cd82610c26565b73ffffffffffffffffffffffffffffffffffffffff1614611823576040517f08c379a000000000000000000000000000000000000000000000000000000000815260040161181a906132aa565b60405180910390fd5b600073ffffffffffffffffffffffffffffffffffffffff168273ffffffffffffffffffffffffffffffffffffffff1603611892576040517f08c379a00000000000000000000000000000000000000000000000000000000081526004016118899061333c565b60405180910390fd5b61189d838383611dad565b6118a8600082611616565b6001600360008573ffffffffffffffffffffffffffffffffffffffff1673ffffffffffffffffffffffffffffffffffffffff16815260200190815260200160002060008282546118f89190613143565b925050819055506001600360008473ffffffffffffffffffffffffffffffffffffffff1673ffffffffffffffffffffffffffffffffffffffff168152602001908152602001600020600082825461194f9190612e6b565b92505081905550816002600083815260200190815260200160002060006101000a81548173ffffffffffffffffffffffffffffffffffffffff021916908373ffffffffffffffffffffffffffffffffffffffff160217905550808273ffffffffffffffffffffffffffffffffffffffff168473ffffffffffffffffffffffffffffffffffffffff167fddf252ad1be2c89b69c2b068fc378daa952ba7f163c4a11628f55a4df523b3ef60405160405180910390a4611a0e838383611db2565b505050565b611a1d8383611db7565b611a2a6000848484611f90565b611a69576040517f08c379a0000000000000000000000000000000000000000000000000000000008152600401611a60906133ce565b60405180910390fd5b505050565b8173ffffffffffffffffffffffffffffffffffffffff168373ffffffffffffffffffffffffffffffffffffffff1603611adc576040517f08c379a0000000000000000000000000000000000000000000000000000000008152600401611ad39061343a565b60405180910390fd5b80600560008573ffffffffffffffffffffffffffffffffffffffff1673ffffffffffffffffffffffffffffffffffffffff16815260200190815260200160002060008473ffffffffffffffffffffffffffffffffffffffff1673ffffffffffffffffffffffffffffffffffffffff16815260200190815260200160002060006101000a81548160ff0219169083151502179055508173ffffffffffffffffffffffffffffffffffffffff168373ffffffffffffffffffffffffffffffffffffffff167f17307eab39ab6107e8899845ad3d59bd9653f200f220920489ca2b5937696c3183604051611bcd919061235c565b60405180910390a3505050565b611be58484846117ad565b611bf184848484611f90565b611c30576040517f08c379a0000000000000000000000000000000000000000000000000000000008152600401611c27906133ce565b60405180910390fd5b50505050565b606060405180602001604052806000815250905090565b606060008203611c94576040518060400160405280600181526020017f30000000000000000000000000000000000000000000000000000000000000008152509050611da8565b600082905060005b60008214611cc6578080611caf9061345a565b915050600a82611cbf91906134d1565b9150611c9c565b60008167ffffffffffffffff811115611ce257611ce16125ba565b5b6040519080825280601f01601f191660200182016040528015611d145781602001600182028036833780820191505090505b5090505b60008514611da157600182611d2d9190613143565b9150600a85611d3c9190613502565b6030611d489190612e6b565b60f81b818381518110611d5e57611d5d613177565b5b60200101907effffffffffffffffffffffffffffffffffffffffffffffffffffffffffffff1916908160001a905350600a85611d9a91906134d1565b9450611d18565b8093505050505b919050565b505050565b505050565b600073ffffffffffffffffffffffffffffffffffffffff168273ffffffffffffffffffffffffffffffffffffffff1603611e26576040517f08c379a0000000000000000000000000000000000000000000000000000000008152600401611e1d9061357f565b60405180910390fd5b611e2f816115a2565b15611e6f576040517f08c379a0000000000000000000000000000000000000000000000000000000008152600401611e66906135eb565b60405180910390fd5b611e7b60008383611dad565b6001600360008473ffffffffffffffffffffffffffffffffffffffff1673ffffffffffffffffffffffffffffffffffffffff1681526020019081526020016000206000828254611ecb9190612e6b565b92505081905550816002600083815260200190815260200160002060006101000a81548173ffffffffffffffffffffffffffffffffffffffff021916908373ffffffffffffffffffffffffffffffffffffffff160217905550808273ffffffffffffffffffffffffffffffffffffffff16600073ffffffffffffffffffffffffffffffffffffffff167fddf252ad1be2c89b69c2b068fc378daa952ba7f163c4a11628f55a4df523b3ef60405160405180910390a4611f8c60008383611db2565b5050565b6000611fb18473ffffffffffffffffffffffffffffffffffffffff16612117565b1561210a578373ffffffffffffffffffffffffffffffffffffffff1663150b7a02611fda61160e565b8786866040518563ffffffff1660e01b8152600401611ffc949392919061360b565b6020604051808303816000875af192505050801561203857506040513d601f19601f82011682018060405250810190612035919061366c565b60015b6120ba573d8060008114612068576040519150601f19603f3d011682016040523d82523d6000602084013e61206d565b606091505b5060008151036120b2576040517f08c379a00000000000000000000000000000000000000000000000000000000081526004016120a9906133ce565b60405180910390fd5b805181602001fd5b63150b7a0260e01b7bffffffffffffffffffffffffffffffffffffffffffffffffffffffff1916817bffffffffffffffffffffffffffffffffffffffffffffffffffffffff19161491505061210f565b600190505b949350505050565b6000808273ffffffffffffffffffffffffffffffffffffffff163b119050919050565b82805461214690612bc3565b90600052602060002090601f01602090048101928261216857600085556121af565b82601f1061218157805160ff19168380011785556121af565b828001600101855582156121af579182015b828111156121ae578251825591602001919060010190612193565b5b5090506121bc919061228b565b5090565b8280546121cc90612bc3565b90600052602060002090601f0160209004810192826121ee5760008555612235565b82601f1061220757805160ff1916838001178555612235565b82800160010185558215612235579182015b82811115612234578251825591602001919060010190612219565b5b509050612242919061228b565b5090565b6040518060a0016040528060008152602001600073ffffffffffffffffffffffffffffffffffffffff1681526020016060815260200160608152602001606081525090565b5b808211156122a457600081600090555060010161228c565b5090565b6000604051905090565b600080fd5b600080fd5b60007fffffffff0000000000000000000000000000000000000000000000000000000082169050919050565b6122f1816122bc565b81146122fc57600080fd5b50565b60008135905061230e816122e8565b92915050565b60006020828403121561232a576123296122b2565b5b6000612338848285016122ff565b91505092915050565b60008115159050919050565b61235681612341565b82525050565b6000602082019050612371600083018461234d565b92915050565b600081519050919050565b600082825260208201905092915050565b60005b838110156123b1578082015181840152602081019050612396565b838111156123c0576000848401525b50505050565b6000601f19601f8301169050919050565b60006123e282612377565b6123ec8185612382565b93506123fc818560208601612393565b612405816123c6565b840191505092915050565b6000602082019050818103600083015261242a81846123d7565b905092915050565b6000819050919050565b61244581612432565b811461245057600080fd5b50565b6000813590506124628161243c565b92915050565b60006020828403121561247e5761247d6122b2565b5b600061248c84828501612453565b91505092915050565b600073ffffffffffffffffffffffffffffffffffffffff82169050919050565b60006124c082612495565b9050919050565b6124d0816124b5565b82525050565b60006020820190506124eb60008301846124c7565b92915050565b6124fa816124b5565b811461250557600080fd5b50565b600081359050612517816124f1565b92915050565b60008060408385031215612534576125336122b2565b5b600061254285828601612508565b925050602061255385828601612453565b9150509250929050565b600080600060608486031215612576576125756122b2565b5b600061258486828701612508565b935050602061259586828701612508565b92505060406125a686828701612453565b9150509250925092565b600080fd5b600080fd5b7f4e487b7100000000000000000000000000000000000000000000000000000000600052604160045260246000fd5b6125f2826123c6565b810181811067ffffffffffffffff82111715612611576126106125ba565b5b80604052505050565b60006126246122a8565b905061263082826125e9565b919050565b600067ffffffffffffffff8211156126505761264f6125ba565b5b612659826123c6565b9050602081019050919050565b82818337600083830152505050565b600061268861268384612635565b61261a565b9050828152602081018484840111156126a4576126a36125b5565b5b6126af848285612666565b509392505050565b600082601f8301126126cc576126cb6125b0565b5b81356126dc848260208601612675565b91505092915050565b6000806000606084860312156126fe576126fd6122b2565b5b600084013567ffffffffffffffff81111561271c5761271b6122b7565b5b612728868287016126b7565b935050602084013567ffffffffffffffff811115612749576127486122b7565b5b612755868287016126b7565b925050604084013567ffffffffffffffff811115612776576127756122b7565b5b612782868287016126b7565b9150509250925092565b600081519050919050565b600082825260208201905092915050565b60006127b38261278c565b6127bd8185612797565b93506127cd818560208601612393565b6127d6816123c6565b840191505092915050565b600060208201905081810360008301526127fb81846127a8565b905092915050565b600060208284031215612819576128186122b2565b5b600061282784828501612508565b91505092915050565b61283981612432565b82525050565b60006020820190506128546000830184612830565b92915050565b60008060408385031215612871576128706122b2565b5b600061287f85828601612508565b925050602083013567ffffffffffffffff8111156128a05761289f6122b7565b5b6128ac858286016126b7565b9150509250929050565b6128bf81612341565b81146128ca57600080fd5b50565b6000813590506128dc816128b6565b92915050565b600080604083850312156128f9576128f86122b2565b5b600061290785828601612508565b9250506020612918858286016128cd565b9150509250929050565b600067ffffffffffffffff82111561293d5761293c6125ba565b5b612946826123c6565b9050602081019050919050565b600061296661296184612922565b61261a565b905082815260208101848484011115612982576129816125b5565b5b61298d848285612666565b509392505050565b600082601f8301126129aa576129a96125b0565b5b81356129ba848260208601612953565b91505092915050565b600080600080608085870312156129dd576129dc6122b2565b5b60006129eb87828801612508565b94505060206129fc87828801612508565b9350506040612a0d87828801612453565b925050606085013567ffffffffffffffff811115612a2e57612a2d6122b7565b5b612a3a87828801612995565b91505092959194509250565b60008060408385031215612a5d57612a5c6122b2565b5b6000612a6b85828601612508565b9250506020612a7c85828601612508565b9150509250929050565b612a8f81612432565b82525050565b612a9e816124b5565b82525050565b600082825260208201905092915050565b6000612ac082612377565b612aca8185612aa4565b9350612ada818560208601612393565b612ae3816123c6565b840191505092915050565b600060a083016000830151612b066000860182612a86565b506020830151612b196020860182612a95565b5060408301518482036040860152612b318282612ab5565b91505060608301518482036060860152612b4b8282612ab5565b91505060808301518482036080860152612b658282612ab5565b9150508091505092915050565b60006020820190508181036000830152612b8c8184612aee565b905092915050565b7f4e487b7100000000000000000000000000000000000000000000000000000000600052602260045260246000fd5b60006002820490506001821680612bdb57607f821691505b602082108103612bee57612bed612b94565b5b50919050565b7f4552433732313a20617070726f76656420717565727920666f72206e6f6e657860008201527f697374656e7420746f6b656e0000000000000000000000000000000000000000602082015250565b6000612c50602c83612382565b9150612c5b82612bf4565b604082019050919050565b60006020820190508181036000830152612c7f81612c43565b9050919050565b7f4552433732313a20617070726f76616c20746f2063757272656e74206f776e6560008201527f7200000000000000000000000000000000000000000000000000000000000000602082015250565b6000612ce2602183612382565b9150612ced82612c86565b604082019050919050565b60006020820190508181036000830152612d1181612cd5565b9050919050565b7f4552433732313a20617070726f76652063616c6c6572206973206e6f74206f7760008201527f6e6572206e6f7220617070726f76656420666f7220616c6c0000000000000000602082015250565b6000612d74603883612382565b9150612d7f82612d18565b604082019050919050565b60006020820190508181036000830152612da381612d67565b9050919050565b7f4552433732313a207472616e736665722063616c6c6572206973206e6f74206f60008201527f776e6572206e6f7220617070726f766564000000000000000000000000000000602082015250565b6000612e06603183612382565b9150612e1182612daa565b604082019050919050565b60006020820190508181036000830152612e3581612df9565b9050919050565b7f4e487b7100000000000000000000000000000000000000000000000000000000600052601160045260246000fd5b6000612e7682612432565b9150612e8183612432565b9250827fffffffffffffffffffffffffffffffffffffffffffffffffffffffffffffffff03821115612eb657612eb5612e3c565b5b828201905092915050565b7f4552433732313a206f776e657220717565727920666f72206e6f6e657869737460008201527f656e7420746f6b656e0000000000000000000000000000000000000000000000602082015250565b6000612f1d602983612382565b9150612f2882612ec1565b604082019050919050565b60006020820190508181036000830152612f4c81612f10565b9050919050565b7f4552433732313a2062616c616e636520717565727920666f7220746865207a6560008201527f726f206164647265737300000000000000000000000000000000000000000000602082015250565b6000612faf602a83612382565b9150612fba82612f53565b604082019050919050565b60006020820190508181036000830152612fde81612fa2565b9050919050565b7f4552433732314d657461646174613a2055524920717565727920666f72206e6f60008201527f6e6578697374656e7420746f6b656e0000000000000000000000000000000000602082015250565b6000613041602f83612382565b915061304c82612fe5565b604082019050919050565b6000602082019050818103600083015261307081613034565b9050919050565b600081905092915050565b600061308d82612377565b6130978185613077565b93506130a7818560208601612393565b80840191505092915050565b60006130bf8285613082565b91506130cb8284613082565b91508190509392505050565b7f6e6f7420656e6f75676820776569000000000000000000000000000000000000600082015250565b600061310d600e83612382565b9150613118826130d7565b602082019050919050565b6000602082019050818103600083015261313c81613100565b9050919050565b600061314e82612432565b915061315983612432565b92508282101561316c5761316b612e3c565b5b828203905092915050565b7f4e487b7100000000000000000000000000000000000000000000000000000000600052603260045260246000fd5b7f4552433732313a206f70657261746f7220717565727920666f72206e6f6e657860008201527f697374656e7420746f6b656e0000000000000000000000000000000000000000602082015250565b6000613202602c83612382565b915061320d826131a6565b604082019050919050565b60006020820190508181036000830152613231816131f5565b9050919050565b7f4552433732313a207472616e736665722066726f6d20696e636f72726563742060008201527f6f776e6572000000000000000000000000000000000000000000000000000000602082015250565b6000613294602583612382565b915061329f82613238565b604082019050919050565b600060208201905081810360008301526132c381613287565b9050919050565b7f4552433732313a207472616e7366657220746f20746865207a65726f2061646460008201527f7265737300000000000000000000000000000000000000000000000000000000602082015250565b6000613326602483612382565b9150613331826132ca565b604082019050919050565b6000602082019050818103600083015261335581613319565b9050919050565b7f4552433732313a207472616e7366657220746f206e6f6e20455243373231526560008201527f63656976657220696d706c656d656e7465720000000000000000000000000000602082015250565b60006133b8603283612382565b91506133c38261335c565b604082019050919050565b600060208201905081810360008301526133e7816133ab565b9050919050565b7f4552433732313a20617070726f766520746f2063616c6c657200000000000000600082015250565b6000613424601983612382565b915061342f826133ee565b602082019050919050565b6000602082019050818103600083015261345381613417565b9050919050565b600061346582612432565b91507fffffffffffffffffffffffffffffffffffffffffffffffffffffffffffffffff820361349757613496612e3c565b5b600182019050919050565b7f4e487b7100000000000000000000000000000000000000000000000000000000600052601260045260246000fd5b60006134dc82612432565b91506134e783612432565b9250826134f7576134f66134a2565b5b828204905092915050565b600061350d82612432565b915061351883612432565b925082613528576135276134a2565b5b828206905092915050565b7f4552433732313a206d696e7420746f20746865207a65726f2061646472657373600082015250565b6000613569602083612382565b915061357482613533565b602082019050919050565b600060208201905081810360008301526135988161355c565b9050919050565b7f4552433732313a20746f6b656e20616c7265616479206d696e74656400000000600082015250565b60006135d5601c83612382565b91506135e08261359f565b602082019050919050565b60006020820190508181036000830152613604816135c8565b9050919050565b600060808201905061362060008301876124c7565b61362d60208301866124c7565b61363a6040830185612830565b818103606083015261364c81846127a8565b905095945050505050565b600081519050613666816122e8565b92915050565b600060208284031215613682576136816122b2565b5b600061369084828501613657565b9150509291505056fea2646970667358221220ac003dc2e980a69006248c5524bc38efa531205f585adbc8e6b0ca72ee42461764736f6c634300080d0033",
  "immutableReferences": {},
  "source": "// SPDX-License-Identifier: GPL-3.0\n// // // // // // // // // // // // // // // // // // // // // // // // // // // // // // // // // // // // // // // // // // // // // // // // // // // // // // // // // // // // //\n//   \n//\n// // // // // // // // // // // // // // // // // // // // // // // // // // // // // // // // // // // // // // // // // // // // // // // // // // // // // // // // // // // // //\n//                                                                                                                                                                                  //\n//                                                                                                                                                                                  //\n//                                                                                                                                                                                  //\n//                                                                                                                                                                                  //\n//                                                                                                                                                                                  //\n//      @artist ::          stereoIII6.eth                                                                                                                                          //\n//      @msg ::             stereoIII6.eth.chat                                                                                                                                     //\n//      @github ::          stereoIII6                                                                                                                                              //\n//                                                                                                                                                                                  //\n//      @dev ::             stereoIII6.eth                                                                                                                                          //\n//      @msg ::             stereoIII6.eth.chat                                                                                                                                     //\n//      @github ::          stereoIII6                                                                                                                                              //\n//                                                                                                                                                                                  //\n//      @author ::          stereoIII6.eth                                                                                                                                          //\n//      @msg ::             stereoIII6.eth.chat                                                                                                                                     //\n//      @github ::          stereoIII6                                                                                                                                              //\n//                                                                                                                                                                                  //\n//                                                                                                                                                                                  //\n//                                                                                                                                                                                  //\n// // // // // // // // // // // // // // // // // // // // // // // // // // // // // // // // // // // // // // // // // // // // // // // // // // // // // // // // // // // // //\n//                                                                                                                                                                                  //\n// // // // // // // // // // // // // // // // // // // // // // // // // // // // // // // // // // // // // // // // // // // // // // // // // // // // // // // // // // // // //\n//                                                                                                                                                                                  //\n//                                                                                                                                                                                  //\n//      @title ::                                                                                                                                                                   //\n//      @description ::                                                                                                                                                             //\n//      @version ::         0.0.1                                                                                                                                                   //\n//      @purpose ::                                                                                                                                                                 //\n//                                                                                                                                                                                  //\n//                                                                                                                                                                                  //\n//                                                                                                                                                                                  //\n//                                                                                                                                                                                  //\n//                                                                                                                                                                                  //\n// // // // // // // // // // // // // // // // // // // // // // // // // // // // // // // // // // // // // // // // // // // // // // // // // // // // // // // // // // // // //\n\npragma solidity ^0.8.7;\nimport \"@openzeppelin/contracts/token/ERC721/ERC721.sol\";\ncontract List is ERC721 {\n    struct User {\n        uint256 id;\n        address userAdr;\n        string name;\n        string email;\n        string data;\n    }\n    uint256 internal u;\n    uint256 internal d;\n    uint256 public t;\n    uint256 internal n;\n    \n    User[] internal users;\n    mapping(address => uint256) internal uNum;\n    address payable internal safe;\n    address payable internal owner;\n    mapping(uint256 => uint256) public userlist; \n    mapping(uint256 => uint256) public donations;\n    mapping(uint256 => uint256) public nftletter;\n    mapping(uint256 => bytes) public tokens;\n    constructor() ERC721(\"Impact Market\",\"IMPCT\") {\n        safe = payable(address(this));\n        owner = payable(msg.sender);\n        u = 1;\n    }\n    function makeUser(string memory _name,string memory _email, string memory _data) external returns(bool){\n        \n        bool check = true;\n        users.push(User(u,msg.sender,_name,_email,_data));\n        uNum[msg.sender] = u;\n        userlist[u] = t;\n        u += 1;\n        _safeMint(msg.sender,t,bytes(_data));\n        tokens[t] = bytes(_data);\n        t += 1;\n        return check;\n    }\n    function readUser() external view returns(User memory){\n        return users[uNum[msg.sender]-1];\n    }\n    function readToken(uint256 _id) external view returns(string memory){\n        return string(tokens[_id]);\n    }\n    function donate() external payable returns(bool){\n        \n        require(msg.value >= 1*10**15, \"not enough wei\");\n        _safeMint(msg.sender,t,bytes(\"i donated\"));\n        tokens[t] = bytes(\"i donated\");\n        donations[d] = t;\n        d += 1;\n        t += 1;\n        return true;\n    }\n    function nftLetter(address _a, string memory _data) external returns(bool){\n        _safeMint(_a,t,bytes(_data));\n        tokens[t] = bytes(_data);\n        nftletter[n] = t;\n        n += 1;\n        t += 1;\n        return true;\n    }\n\n    fallback() external \n    {\n\n    }\n}",
  "sourcePath": "/Users/jediswag/Documents/web3/goldmansucks/impactMarketList/contracts/List.sol",
  "compiler": {
    "name": "solc",
    "version": "0.8.13+commit.abaa5c0e.Emscripten.clang"
  },
  "schemaVersion": "3.4.4",
  "updatedAt": "2022-03-31T12:45:15.899Z",
  "networkType": "ethereum",
  "devdoc": {
    "kind": "dev",
    "methods": {
      "approve(address,uint256)": {
        "details": "See {IERC721-approve}."
      },
      "balanceOf(address)": {
        "details": "See {IERC721-balanceOf}."
      },
      "getApproved(uint256)": {
        "details": "See {IERC721-getApproved}."
      },
      "isApprovedForAll(address,address)": {
        "details": "See {IERC721-isApprovedForAll}."
      },
      "name()": {
        "details": "See {IERC721Metadata-name}."
      },
      "ownerOf(uint256)": {
        "details": "See {IERC721-ownerOf}."
      },
      "safeTransferFrom(address,address,uint256)": {
        "details": "See {IERC721-safeTransferFrom}."
      },
      "safeTransferFrom(address,address,uint256,bytes)": {
        "details": "See {IERC721-safeTransferFrom}."
      },
      "setApprovalForAll(address,bool)": {
        "details": "See {IERC721-setApprovalForAll}."
      },
      "supportsInterface(bytes4)": {
        "details": "See {IERC165-supportsInterface}."
      },
      "symbol()": {
        "details": "See {IERC721Metadata-symbol}."
      },
      "tokenURI(uint256)": {
        "details": "See {IERC721Metadata-tokenURI}."
      },
      "transferFrom(address,address,uint256)": {
        "details": "See {IERC721-transferFrom}."
      }
    },
    "version": 1
  },
  "userdoc": {
    "kind": "user",
    "methods": {},
    "version": 1
  }
}