{
  "contractName": "nftletter",
  "abi": [
    {
      "inputs": [],
      "stateMutability": "nonpayable",
      "type": "constructor"
    },
    {
      "anonymous": false,
      "inputs": [
        {
          "indexed": true,
          "internalType": "address",
          "name": "account",
          "type": "address"
        },
        {
          "indexed": true,
          "internalType": "address",
          "name": "operator",
          "type": "address"
        },
        {
          "indexed": false,
          "internalType": "bool",
          "name": "approved",
          "type": "bool"
        }
      ],
      "name": "ApprovalForAll",
      "type": "event"
    },
    {
      "anonymous": false,
      "inputs": [
        {
          "indexed": true,
          "internalType": "address",
          "name": "operator",
          "type": "address"
        },
        {
          "indexed": true,
          "internalType": "address",
          "name": "from",
          "type": "address"
        },
        {
          "indexed": true,
          "internalType": "address",
          "name": "to",
          "type": "address"
        },
        {
          "indexed": false,
          "internalType": "uint256[]",
          "name": "ids",
          "type": "uint256[]"
        },
        {
          "indexed": false,
          "internalType": "uint256[]",
          "name": "values",
          "type": "uint256[]"
        }
      ],
      "name": "TransferBatch",
      "type": "event"
    },
    {
      "anonymous": false,
      "inputs": [
        {
          "indexed": true,
          "internalType": "address",
          "name": "operator",
          "type": "address"
        },
        {
          "indexed": true,
          "internalType": "address",
          "name": "from",
          "type": "address"
        },
        {
          "indexed": true,
          "internalType": "address",
          "name": "to",
          "type": "address"
        },
        {
          "indexed": false,
          "internalType": "uint256",
          "name": "id",
          "type": "uint256"
        },
        {
          "indexed": false,
          "internalType": "uint256",
          "name": "value",
          "type": "uint256"
        }
      ],
      "name": "TransferSingle",
      "type": "event"
    },
    {
      "anonymous": false,
      "inputs": [
        {
          "indexed": false,
          "internalType": "string",
          "name": "value",
          "type": "string"
        },
        {
          "indexed": true,
          "internalType": "uint256",
          "name": "id",
          "type": "uint256"
        }
      ],
      "name": "URI",
      "type": "event"
    },
    {
      "stateMutability": "nonpayable",
      "type": "fallback"
    },
    {
      "inputs": [
        {
          "internalType": "address",
          "name": "account",
          "type": "address"
        },
        {
          "internalType": "uint256",
          "name": "id",
          "type": "uint256"
        }
      ],
      "name": "balanceOf",
      "outputs": [
        {
          "internalType": "uint256",
          "name": "",
          "type": "uint256"
        }
      ],
      "stateMutability": "view",
      "type": "function",
      "constant": true
    },
    {
      "inputs": [
        {
          "internalType": "address[]",
          "name": "accounts",
          "type": "address[]"
        },
        {
          "internalType": "uint256[]",
          "name": "ids",
          "type": "uint256[]"
        }
      ],
      "name": "balanceOfBatch",
      "outputs": [
        {
          "internalType": "uint256[]",
          "name": "",
          "type": "uint256[]"
        }
      ],
      "stateMutability": "view",
      "type": "function",
      "constant": true
    },
    {
      "inputs": [
        {
          "internalType": "address",
          "name": "account",
          "type": "address"
        },
        {
          "internalType": "address",
          "name": "operator",
          "type": "address"
        }
      ],
      "name": "isApprovedForAll",
      "outputs": [
        {
          "internalType": "bool",
          "name": "",
          "type": "bool"
        }
      ],
      "stateMutability": "view",
      "type": "function",
      "constant": true
    },
    {
      "inputs": [
        {
          "internalType": "address",
          "name": "from",
          "type": "address"
        },
        {
          "internalType": "address",
          "name": "to",
          "type": "address"
        },
        {
          "internalType": "uint256[]",
          "name": "ids",
          "type": "uint256[]"
        },
        {
          "internalType": "uint256[]",
          "name": "amounts",
          "type": "uint256[]"
        },
        {
          "internalType": "bytes",
          "name": "data",
          "type": "bytes"
        }
      ],
      "name": "safeBatchTransferFrom",
      "outputs": [],
      "stateMutability": "nonpayable",
      "type": "function"
    },
    {
      "inputs": [
        {
          "internalType": "address",
          "name": "from",
          "type": "address"
        },
        {
          "internalType": "address",
          "name": "to",
          "type": "address"
        },
        {
          "internalType": "uint256",
          "name": "id",
          "type": "uint256"
        },
        {
          "internalType": "uint256",
          "name": "amount",
          "type": "uint256"
        },
        {
          "internalType": "bytes",
          "name": "data",
          "type": "bytes"
        }
      ],
      "name": "safeTransferFrom",
      "outputs": [],
      "stateMutability": "nonpayable",
      "type": "function"
    },
    {
      "inputs": [
        {
          "internalType": "address",
          "name": "operator",
          "type": "address"
        },
        {
          "internalType": "bool",
          "name": "approved",
          "type": "bool"
        }
      ],
      "name": "setApprovalForAll",
      "outputs": [],
      "stateMutability": "nonpayable",
      "type": "function"
    },
    {
      "inputs": [
        {
          "internalType": "bytes4",
          "name": "interfaceId",
          "type": "bytes4"
        }
      ],
      "name": "supportsInterface",
      "outputs": [
        {
          "internalType": "bool",
          "name": "",
          "type": "bool"
        }
      ],
      "stateMutability": "view",
      "type": "function",
      "constant": true
    },
    {
      "inputs": [
        {
          "internalType": "uint256",
          "name": "",
          "type": "uint256"
        }
      ],
      "name": "uri",
      "outputs": [
        {
          "internalType": "string",
          "name": "",
          "type": "string"
        }
      ],
      "stateMutability": "view",
      "type": "function",
      "constant": true
    },
    {
      "inputs": [
        {
          "internalType": "string",
          "name": "_state",
          "type": "string"
        }
      ],
      "name": "updateState",
      "outputs": [
        {
          "internalType": "bool",
          "name": "",
          "type": "bool"
        }
      ],
      "stateMutability": "nonpayable",
      "type": "function"
    },
    {
      "inputs": [
        {
          "internalType": "uint256",
          "name": "_amount",
          "type": "uint256"
        },
        {
          "internalType": "string",
          "name": "_data",
          "type": "string"
        }
      ],
      "name": "mintLetter",
      "outputs": [
        {
          "internalType": "bool",
          "name": "",
          "type": "bool"
        }
      ],
      "stateMutability": "nonpayable",
      "type": "function"
    },
    {
      "inputs": [
        {
          "internalType": "uint256",
          "name": "_amount",
          "type": "uint256"
        }
      ],
      "name": "mintStateLetter",
      "outputs": [
        {
          "internalType": "bool",
          "name": "",
          "type": "bool"
        }
      ],
      "stateMutability": "nonpayable",
      "type": "function"
    }
  ],
  "bytecode": "0x6080604052738cf3c63be0bc3d1478496b6449316babd225f78a600560006101000a81548173ffffffffffffffffffffffffffffffffffffffff021916908373ffffffffffffffffffffffffffffffffffffffff1602179055503480156200006657600080fd5b506040518060400160405280601181526020017f496d70616374204e4654204c6574746572000000000000000000000000000000815250620000ae81620001f560201b60201c565b5033600360006101000a81548173ffffffffffffffffffffffffffffffffffffffff021916908373ffffffffffffffffffffffffffffffffffffffff1602179055506004600360009054906101000a900473ffffffffffffffffffffffffffffffffffffffff169080600181540180825580915050600190039060005260206000200160009091909190916101000a81548173ffffffffffffffffffffffffffffffffffffffff021916908373ffffffffffffffffffffffffffffffffffffffff160217905550600160076000600360009054906101000a900473ffffffffffffffffffffffffffffffffffffffff1673ffffffffffffffffffffffffffffffffffffffff1673ffffffffffffffffffffffffffffffffffffffff16815260200190815260200160002060006101000a81548160ff02191690831515021790555062000325565b80600290805190602001906200020d92919062000211565b5050565b8280546200021f90620002f0565b90600052602060002090601f0160209004810192826200024357600085556200028f565b82601f106200025e57805160ff19168380011785556200028f565b828001600101855582156200028f579182015b828111156200028e57825182559160200191906001019062000271565b5b5090506200029e9190620002a2565b5090565b5b80821115620002bd576000816000905550600101620002a3565b5090565b7f4e487b7100000000000000000000000000000000000000000000000000000000600052602260045260246000fd5b600060028204905060018216806200030957607f821691505b6020821081036200031f576200031e620002c1565b5b50919050565b612b6a80620003356000396000f3fe608060405234801561001057600080fd5b50600436106100ac5760003560e01c806379ff2e6d1161007157806379ff2e6d1461018b578063a22cb465146101bb578063a88c7f57146101d7578063e985e9c514610207578063f242432a14610237578063fd8c287914610253576100ad565b8062fdd58e146100af57806301ffc9a7146100df5780630e89341c1461010f5780632eb2c2d61461013f5780634e1273f41461015b576100ad565b5b005b6100c960048036038101906100c4919061178e565b610283565b6040516100d691906117dd565b60405180910390f35b6100f960048036038101906100f49190611850565b61034b565b6040516101069190611898565b60405180910390f35b610129600480360381019061012491906118b3565b61042d565b6040516101369190611979565b60405180910390f35b61015960048036038101906101549190611b98565b6104c1565b005b61017560048036038101906101709190611d2a565b610562565b6040516101829190611e60565b60405180910390f35b6101a560048036038101906101a09190611f23565b61067b565b6040516101b29190611898565b60405180910390f35b6101d560048036038101906101d09190611f98565b61069d565b005b6101f160048036038101906101ec9190611fd8565b6106b3565b6040516101fe9190611898565b60405180910390f35b610221600480360381019061021c9190612034565b6106ef565b60405161022e9190611898565b60405180910390f35b610251600480360381019061024c9190612074565b610783565b005b61026d600480360381019061026891906118b3565b610824565b60405161027a9190611898565b60405180910390f35b60008073ffffffffffffffffffffffffffffffffffffffff168373ffffffffffffffffffffffffffffffffffffffff16036102f3576040517f08c379a00000000000000000000000000000000000000000000000000000000081526004016102ea9061217d565b60405180910390fd5b60008083815260200190815260200160002060008473ffffffffffffffffffffffffffffffffffffffff1673ffffffffffffffffffffffffffffffffffffffff16815260200190815260200160002054905092915050565b60007fd9b67a26000000000000000000000000000000000000000000000000000000007bffffffffffffffffffffffffffffffffffffffffffffffffffffffff1916827bffffffffffffffffffffffffffffffffffffffffffffffffffffffff1916148061041657507f0e89341c000000000000000000000000000000000000000000000000000000007bffffffffffffffffffffffffffffffffffffffffffffffffffffffff1916827bffffffffffffffffffffffffffffffffffffffffffffffffffffffff1916145b806104265750610425826108e9565b5b9050919050565b60606002805461043c906121cc565b80601f0160208091040260200160405190810160405280929190818152602001828054610468906121cc565b80156104b55780601f1061048a576101008083540402835291602001916104b5565b820191906000526020600020905b81548152906001019060200180831161049857829003601f168201915b50505050509050919050565b6104c9610953565b73ffffffffffffffffffffffffffffffffffffffff168573ffffffffffffffffffffffffffffffffffffffff16148061050f575061050e85610509610953565b6106ef565b5b61054e576040517f08c379a00000000000000000000000000000000000000000000000000000000081526004016105459061226f565b60405180910390fd5b61055b858585858561095b565b5050505050565b606081518351146105a8576040517f08c379a000000000000000000000000000000000000000000000000000000000815260040161059f90612301565b60405180910390fd5b6000835167ffffffffffffffff8111156105c5576105c46119a0565b5b6040519080825280602002602001820160405280156105f35781602001602082028036833780820191505090505b50905060005b84518110156106705761064085828151811061061857610617612321565b5b602002602001015185838151811061063357610632612321565b5b6020026020010151610283565b82828151811061065357610652612321565b5b602002602001018181525050806106699061237f565b90506105f9565b508091505092915050565b60008160089080519060200190610693929190611643565b5060019050919050565b6106af6106a8610953565b8383610c6e565b5050565b60006106e5600560009054906101000a900473ffffffffffffffffffffffffffffffffffffffff166006548585610dda565b6001905092915050565b6000600160008473ffffffffffffffffffffffffffffffffffffffff1673ffffffffffffffffffffffffffffffffffffffff16815260200190815260200160002060008373ffffffffffffffffffffffffffffffffffffffff1673ffffffffffffffffffffffffffffffffffffffff16815260200190815260200160002060009054906101000a900460ff16905092915050565b61078b610953565b73ffffffffffffffffffffffffffffffffffffffff168573ffffffffffffffffffffffffffffffffffffffff1614806107d157506107d0856107cb610953565b6106ef565b5b610810576040517f08c379a000000000000000000000000000000000000000000000000000000000815260040161080790612439565b60405180910390fd5b61081d8585858585610f6f565b5050505050565b60006108e0600560009054906101000a900473ffffffffffffffffffffffffffffffffffffffff16600654846008805461085d906121cc565b80601f0160208091040260200160405190810160405280929190818152602001828054610889906121cc565b80156108d65780601f106108ab576101008083540402835291602001916108d6565b820191906000526020600020905b8154815290600101906020018083116108b957829003601f168201915b5050505050610dda565b60019050919050565b60007f01ffc9a7000000000000000000000000000000000000000000000000000000007bffffffffffffffffffffffffffffffffffffffffffffffffffffffff1916827bffffffffffffffffffffffffffffffffffffffffffffffffffffffff1916149050919050565b600033905090565b815183511461099f576040517f08c379a0000000000000000000000000000000000000000000000000000000008152600401610996906124cb565b60405180910390fd5b600073ffffffffffffffffffffffffffffffffffffffff168473ffffffffffffffffffffffffffffffffffffffff1603610a0e576040517f08c379a0000000000000000000000000000000000000000000000000000000008152600401610a059061255d565b60405180910390fd5b6000610a18610953565b9050610a288187878787876111f0565b60005b8451811015610bd9576000858281518110610a4957610a48612321565b5b602002602001015190506000858381518110610a6857610a67612321565b5b60200260200101519050600080600084815260200190815260200160002060008b73ffffffffffffffffffffffffffffffffffffffff1673ffffffffffffffffffffffffffffffffffffffff16815260200190815260200160002054905081811015610b09576040517f08c379a0000000000000000000000000000000000000000000000000000000008152600401610b00906125ef565b60405180910390fd5b81810360008085815260200190815260200160002060008c73ffffffffffffffffffffffffffffffffffffffff1673ffffffffffffffffffffffffffffffffffffffff168152602001908152602001600020819055508160008085815260200190815260200160002060008b73ffffffffffffffffffffffffffffffffffffffff1673ffffffffffffffffffffffffffffffffffffffff1681526020019081526020016000206000828254610bbe919061260f565b9250508190555050505080610bd29061237f565b9050610a2b565b508473ffffffffffffffffffffffffffffffffffffffff168673ffffffffffffffffffffffffffffffffffffffff168273ffffffffffffffffffffffffffffffffffffffff167f4a39dc06d4c0dbc64b70af90fd698a233a518aa5d07e595d983b8c0526c8f7fb8787604051610c50929190612665565b60405180910390a4610c668187878787876111f8565b505050505050565b8173ffffffffffffffffffffffffffffffffffffffff168373ffffffffffffffffffffffffffffffffffffffff1603610cdc576040517f08c379a0000000000000000000000000000000000000000000000000000000008152600401610cd39061270e565b60405180910390fd5b80600160008573ffffffffffffffffffffffffffffffffffffffff1673ffffffffffffffffffffffffffffffffffffffff16815260200190815260200160002060008473ffffffffffffffffffffffffffffffffffffffff1673ffffffffffffffffffffffffffffffffffffffff16815260200190815260200160002060006101000a81548160ff0219169083151502179055508173ffffffffffffffffffffffffffffffffffffffff168373ffffffffffffffffffffffffffffffffffffffff167f17307eab39ab6107e8899845ad3d59bd9653f200f220920489ca2b5937696c3183604051610dcd9190611898565b60405180910390a3505050565b600073ffffffffffffffffffffffffffffffffffffffff168473ffffffffffffffffffffffffffffffffffffffff1603610e49576040517f08c379a0000000000000000000000000000000000000000000000000000000008152600401610e40906127a0565b60405180910390fd5b6000610e53610953565b9050610e7481600087610e65886113cf565b610e6e886113cf565b876111f0565b8260008086815260200190815260200160002060008773ffffffffffffffffffffffffffffffffffffffff1673ffffffffffffffffffffffffffffffffffffffff1681526020019081526020016000206000828254610ed3919061260f565b925050819055508473ffffffffffffffffffffffffffffffffffffffff16600073ffffffffffffffffffffffffffffffffffffffff168273ffffffffffffffffffffffffffffffffffffffff167fc3d58168c5ae7397731d063d5bbf3d657854427343f4c083240f7aacaa2d0f628787604051610f519291906127c0565b60405180910390a4610f6881600087878787611449565b5050505050565b600073ffffffffffffffffffffffffffffffffffffffff168473ffffffffffffffffffffffffffffffffffffffff1603610fde576040517f08c379a0000000000000000000000000000000000000000000000000000000008152600401610fd59061255d565b60405180910390fd5b6000610fe8610953565b9050611008818787610ff9886113cf565b611002886113cf565b876111f0565b600080600086815260200190815260200160002060008873ffffffffffffffffffffffffffffffffffffffff1673ffffffffffffffffffffffffffffffffffffffff1681526020019081526020016000205490508381101561109f576040517f08c379a0000000000000000000000000000000000000000000000000000000008152600401611096906125ef565b60405180910390fd5b83810360008087815260200190815260200160002060008973ffffffffffffffffffffffffffffffffffffffff1673ffffffffffffffffffffffffffffffffffffffff168152602001908152602001600020819055508360008087815260200190815260200160002060008873ffffffffffffffffffffffffffffffffffffffff1673ffffffffffffffffffffffffffffffffffffffff1681526020019081526020016000206000828254611154919061260f565b925050819055508573ffffffffffffffffffffffffffffffffffffffff168773ffffffffffffffffffffffffffffffffffffffff168373ffffffffffffffffffffffffffffffffffffffff167fc3d58168c5ae7397731d063d5bbf3d657854427343f4c083240f7aacaa2d0f6288886040516111d19291906127c0565b60405180910390a46111e7828888888888611449565b50505050505050565b505050505050565b6112178473ffffffffffffffffffffffffffffffffffffffff16611620565b156113c7578373ffffffffffffffffffffffffffffffffffffffff1663bc197c8187878686866040518663ffffffff1660e01b815260040161125d95949392919061284d565b6020604051808303816000875af192505050801561129957506040513d601f19601f8201168201806040525081019061129691906128ca565b60015b61133e576112a5612904565b806308c379a00361130157506112b9612926565b806112c45750611303565b806040517f08c379a00000000000000000000000000000000000000000000000000000000081526004016112f89190611979565b60405180910390fd5b505b6040517f08c379a000000000000000000000000000000000000000000000000000000000815260040161133590612a28565b60405180910390fd5b63bc197c8160e01b7bffffffffffffffffffffffffffffffffffffffffffffffffffffffff1916817bffffffffffffffffffffffffffffffffffffffffffffffffffffffff1916146113c5576040517f08c379a00000000000000000000000000000000000000000000000000000000081526004016113bc90612aba565b60405180910390fd5b505b505050505050565b60606000600167ffffffffffffffff8111156113ee576113ed6119a0565b5b60405190808252806020026020018201604052801561141c5781602001602082028036833780820191505090505b509050828160008151811061143457611433612321565b5b60200260200101818152505080915050919050565b6114688473ffffffffffffffffffffffffffffffffffffffff16611620565b15611618578373ffffffffffffffffffffffffffffffffffffffff1663f23a6e6187878686866040518663ffffffff1660e01b81526004016114ae959493929190612ada565b6020604051808303816000875af19250505080156114ea57506040513d601f19601f820116820180604052508101906114e791906128ca565b60015b61158f576114f6612904565b806308c379a003611552575061150a612926565b806115155750611554565b806040517f08c379a00000000000000000000000000000000000000000000000000000000081526004016115499190611979565b60405180910390fd5b505b6040517f08c379a000000000000000000000000000000000000000000000000000000000815260040161158690612a28565b60405180910390fd5b63f23a6e6160e01b7bffffffffffffffffffffffffffffffffffffffffffffffffffffffff1916817bffffffffffffffffffffffffffffffffffffffffffffffffffffffff191614611616576040517f08c379a000000000000000000000000000000000000000000000000000000000815260040161160d90612aba565b60405180910390fd5b505b505050505050565b6000808273ffffffffffffffffffffffffffffffffffffffff163b119050919050565b82805461164f906121cc565b90600052602060002090601f01602090048101928261167157600085556116b8565b82601f1061168a57805160ff19168380011785556116b8565b828001600101855582156116b8579182015b828111156116b757825182559160200191906001019061169c565b5b5090506116c591906116c9565b5090565b5b808211156116e25760008160009055506001016116ca565b5090565b6000604051905090565b600080fd5b600080fd5b600073ffffffffffffffffffffffffffffffffffffffff82169050919050565b6000611725826116fa565b9050919050565b6117358161171a565b811461174057600080fd5b50565b6000813590506117528161172c565b92915050565b6000819050919050565b61176b81611758565b811461177657600080fd5b50565b60008135905061178881611762565b92915050565b600080604083850312156117a5576117a46116f0565b5b60006117b385828601611743565b92505060206117c485828601611779565b9150509250929050565b6117d781611758565b82525050565b60006020820190506117f260008301846117ce565b92915050565b60007fffffffff0000000000000000000000000000000000000000000000000000000082169050919050565b61182d816117f8565b811461183857600080fd5b50565b60008135905061184a81611824565b92915050565b600060208284031215611866576118656116f0565b5b60006118748482850161183b565b91505092915050565b60008115159050919050565b6118928161187d565b82525050565b60006020820190506118ad6000830184611889565b92915050565b6000602082840312156118c9576118c86116f0565b5b60006118d784828501611779565b91505092915050565b600081519050919050565b600082825260208201905092915050565b60005b8381101561191a5780820151818401526020810190506118ff565b83811115611929576000848401525b50505050565b6000601f19601f8301169050919050565b600061194b826118e0565b61195581856118eb565b93506119658185602086016118fc565b61196e8161192f565b840191505092915050565b600060208201905081810360008301526119938184611940565b905092915050565b600080fd5b7f4e487b7100000000000000000000000000000000000000000000000000000000600052604160045260246000fd5b6119d88261192f565b810181811067ffffffffffffffff821117156119f7576119f66119a0565b5b80604052505050565b6000611a0a6116e6565b9050611a1682826119cf565b919050565b600067ffffffffffffffff821115611a3657611a356119a0565b5b602082029050602081019050919050565b600080fd5b6000611a5f611a5a84611a1b565b611a00565b90508083825260208201905060208402830185811115611a8257611a81611a47565b5b835b81811015611aab5780611a978882611779565b845260208401935050602081019050611a84565b5050509392505050565b600082601f830112611aca57611ac961199b565b5b8135611ada848260208601611a4c565b91505092915050565b600080fd5b600067ffffffffffffffff821115611b0357611b026119a0565b5b611b0c8261192f565b9050602081019050919050565b82818337600083830152505050565b6000611b3b611b3684611ae8565b611a00565b905082815260208101848484011115611b5757611b56611ae3565b5b611b62848285611b19565b509392505050565b600082601f830112611b7f57611b7e61199b565b5b8135611b8f848260208601611b28565b91505092915050565b600080600080600060a08688031215611bb457611bb36116f0565b5b6000611bc288828901611743565b9550506020611bd388828901611743565b945050604086013567ffffffffffffffff811115611bf457611bf36116f5565b5b611c0088828901611ab5565b935050606086013567ffffffffffffffff811115611c2157611c206116f5565b5b611c2d88828901611ab5565b925050608086013567ffffffffffffffff811115611c4e57611c4d6116f5565b5b611c5a88828901611b6a565b9150509295509295909350565b600067ffffffffffffffff821115611c8257611c816119a0565b5b602082029050602081019050919050565b6000611ca6611ca184611c67565b611a00565b90508083825260208201905060208402830185811115611cc957611cc8611a47565b5b835b81811015611cf25780611cde8882611743565b845260208401935050602081019050611ccb565b5050509392505050565b600082601f830112611d1157611d1061199b565b5b8135611d21848260208601611c93565b91505092915050565b60008060408385031215611d4157611d406116f0565b5b600083013567ffffffffffffffff811115611d5f57611d5e6116f5565b5b611d6b85828601611cfc565b925050602083013567ffffffffffffffff811115611d8c57611d8b6116f5565b5b611d9885828601611ab5565b9150509250929050565b600081519050919050565b600082825260208201905092915050565b6000819050602082019050919050565b611dd781611758565b82525050565b6000611de98383611dce565b60208301905092915050565b6000602082019050919050565b6000611e0d82611da2565b611e178185611dad565b9350611e2283611dbe565b8060005b83811015611e53578151611e3a8882611ddd565b9750611e4583611df5565b925050600181019050611e26565b5085935050505092915050565b60006020820190508181036000830152611e7a8184611e02565b905092915050565b600067ffffffffffffffff821115611e9d57611e9c6119a0565b5b611ea68261192f565b9050602081019050919050565b6000611ec6611ec184611e82565b611a00565b905082815260208101848484011115611ee257611ee1611ae3565b5b611eed848285611b19565b509392505050565b600082601f830112611f0a57611f0961199b565b5b8135611f1a848260208601611eb3565b91505092915050565b600060208284031215611f3957611f386116f0565b5b600082013567ffffffffffffffff811115611f5757611f566116f5565b5b611f6384828501611ef5565b91505092915050565b611f758161187d565b8114611f8057600080fd5b50565b600081359050611f9281611f6c565b92915050565b60008060408385031215611faf57611fae6116f0565b5b6000611fbd85828601611743565b9250506020611fce85828601611f83565b9150509250929050565b60008060408385031215611fef57611fee6116f0565b5b6000611ffd85828601611779565b925050602083013567ffffffffffffffff81111561201e5761201d6116f5565b5b61202a85828601611ef5565b9150509250929050565b6000806040838503121561204b5761204a6116f0565b5b600061205985828601611743565b925050602061206a85828601611743565b9150509250929050565b600080600080600060a086880312156120905761208f6116f0565b5b600061209e88828901611743565b95505060206120af88828901611743565b94505060406120c088828901611779565b93505060606120d188828901611779565b925050608086013567ffffffffffffffff8111156120f2576120f16116f5565b5b6120fe88828901611b6a565b9150509295509295909350565b7f455243313135353a2062616c616e636520717565727920666f7220746865207a60008201527f65726f2061646472657373000000000000000000000000000000000000000000602082015250565b6000612167602b836118eb565b91506121728261210b565b604082019050919050565b600060208201905081810360008301526121968161215a565b9050919050565b7f4e487b7100000000000000000000000000000000000000000000000000000000600052602260045260246000fd5b600060028204905060018216806121e457607f821691505b6020821081036121f7576121f661219d565b5b50919050565b7f455243313135353a207472616e736665722063616c6c6572206973206e6f742060008201527f6f776e6572206e6f7220617070726f7665640000000000000000000000000000602082015250565b60006122596032836118eb565b9150612264826121fd565b604082019050919050565b600060208201905081810360008301526122888161224c565b9050919050565b7f455243313135353a206163636f756e747320616e6420696473206c656e67746860008201527f206d69736d617463680000000000000000000000000000000000000000000000602082015250565b60006122eb6029836118eb565b91506122f68261228f565b604082019050919050565b6000602082019050818103600083015261231a816122de565b9050919050565b7f4e487b7100000000000000000000000000000000000000000000000000000000600052603260045260246000fd5b7f4e487b7100000000000000000000000000000000000000000000000000000000600052601160045260246000fd5b600061238a82611758565b91507fffffffffffffffffffffffffffffffffffffffffffffffffffffffffffffffff82036123bc576123bb612350565b5b600182019050919050565b7f455243313135353a2063616c6c6572206973206e6f74206f776e6572206e6f7260008201527f20617070726f7665640000000000000000000000000000000000000000000000602082015250565b60006124236029836118eb565b915061242e826123c7565b604082019050919050565b6000602082019050818103600083015261245281612416565b9050919050565b7f455243313135353a2069647320616e6420616d6f756e7473206c656e6774682060008201527f6d69736d61746368000000000000000000000000000000000000000000000000602082015250565b60006124b56028836118eb565b91506124c082612459565b604082019050919050565b600060208201905081810360008301526124e4816124a8565b9050919050565b7f455243313135353a207472616e7366657220746f20746865207a65726f20616460008201527f6472657373000000000000000000000000000000000000000000000000000000602082015250565b60006125476025836118eb565b9150612552826124eb565b604082019050919050565b600060208201905081810360008301526125768161253a565b9050919050565b7f455243313135353a20696e73756666696369656e742062616c616e636520666f60008201527f72207472616e7366657200000000000000000000000000000000000000000000602082015250565b60006125d9602a836118eb565b91506125e48261257d565b604082019050919050565b60006020820190508181036000830152612608816125cc565b9050919050565b600061261a82611758565b915061262583611758565b9250827fffffffffffffffffffffffffffffffffffffffffffffffffffffffffffffffff0382111561265a57612659612350565b5b828201905092915050565b6000604082019050818103600083015261267f8185611e02565b905081810360208301526126938184611e02565b90509392505050565b7f455243313135353a2073657474696e6720617070726f76616c2073746174757360008201527f20666f722073656c660000000000000000000000000000000000000000000000602082015250565b60006126f86029836118eb565b91506127038261269c565b604082019050919050565b60006020820190508181036000830152612727816126eb565b9050919050565b7f455243313135353a206d696e7420746f20746865207a65726f2061646472657360008201527f7300000000000000000000000000000000000000000000000000000000000000602082015250565b600061278a6021836118eb565b91506127958261272e565b604082019050919050565b600060208201905081810360008301526127b98161277d565b9050919050565b60006040820190506127d560008301856117ce565b6127e260208301846117ce565b9392505050565b6127f28161171a565b82525050565b600081519050919050565b600082825260208201905092915050565b600061281f826127f8565b6128298185612803565b93506128398185602086016118fc565b6128428161192f565b840191505092915050565b600060a08201905061286260008301886127e9565b61286f60208301876127e9565b81810360408301526128818186611e02565b905081810360608301526128958185611e02565b905081810360808301526128a98184612814565b90509695505050505050565b6000815190506128c481611824565b92915050565b6000602082840312156128e0576128df6116f0565b5b60006128ee848285016128b5565b91505092915050565b60008160e01c9050919050565b600060033d11156129235760046000803e6129206000516128f7565b90505b90565b600060443d106129b3576129386116e6565b60043d036004823e80513d602482011167ffffffffffffffff821117156129605750506129b3565b808201805167ffffffffffffffff81111561297e57505050506129b3565b80602083010160043d03850181111561299b5750505050506129b3565b6129aa826020018501866119cf565b82955050505050505b90565b7f455243313135353a207472616e7366657220746f206e6f6e204552433131353560008201527f526563656976657220696d706c656d656e746572000000000000000000000000602082015250565b6000612a126034836118eb565b9150612a1d826129b6565b604082019050919050565b60006020820190508181036000830152612a4181612a05565b9050919050565b7f455243313135353a204552433131353552656365697665722072656a6563746560008201527f6420746f6b656e73000000000000000000000000000000000000000000000000602082015250565b6000612aa46028836118eb565b9150612aaf82612a48565b604082019050919050565b60006020820190508181036000830152612ad381612a97565b9050919050565b600060a082019050612aef60008301886127e9565b612afc60208301876127e9565b612b0960408301866117ce565b612b1660608301856117ce565b8181036080830152612b288184612814565b9050969550505050505056fea26469706673582212205a00c3fe40b45a310a73af21837ee478d5b790d095f2e3fdf09a3bc2235e6e5964736f6c634300080d0033",
  "immutableReferences": {},
  "source": "pragma solidity ^0.8.7;\n\nimport \"@openzeppelin/contracts/token/ERC1155/ERC1155.sol\";\n\ncontract nftletter is ERC1155 {\n\n    address internal admin;\n    address[] internal moderators;\n    address distro = 0x8cF3c63Be0BC3d1478496B6449316babD225F78a;\n    uint256 n;\n\n    mapping(address => bool) internal isMod;\n\n    string internal headState;\n\n    constructor() ERC1155(\"Impact NFT Letter\") {\n        admin = msg.sender;\n        moderators.push(admin);\n        isMod[admin] = true;\n    }\n\n    function updateState(string memory _state) external returns(bool){\n        headState = _state;\n        return true;\n    }\n\n    function mintLetter(uint256 _amount, string memory _data) external returns(bool) {\n        \n        _mint(distro,n,_amount,bytes(_data));\n        return true;\n    }\n    function mintStateLetter(uint256 _amount) external returns(bool) {\n        \n        _mint(distro,n,_amount,bytes(headState));\n        return true;\n    }\n    fallback() external {\n\n    }\n}",
  "sourcePath": "/Users/jediswag/Documents/web3/goldmansucks/impactMarketList/contracts/Nftletter.sol",
  "compiler": {
    "name": "solc",
    "version": "0.8.13+commit.abaa5c0e.Emscripten.clang"
  },
  "schemaVersion": "3.4.4",
  "updatedAt": "2022-03-31T12:45:15.909Z",
  "networkType": "ethereum",
  "devdoc": {
    "kind": "dev",
    "methods": {
      "balanceOf(address,uint256)": {
        "details": "See {IERC1155-balanceOf}. Requirements: - `account` cannot be the zero address."
      },
      "balanceOfBatch(address[],uint256[])": {
        "details": "See {IERC1155-balanceOfBatch}. Requirements: - `accounts` and `ids` must have the same length."
      },
      "isApprovedForAll(address,address)": {
        "details": "See {IERC1155-isApprovedForAll}."
      },
      "safeBatchTransferFrom(address,address,uint256[],uint256[],bytes)": {
        "details": "See {IERC1155-safeBatchTransferFrom}."
      },
      "safeTransferFrom(address,address,uint256,uint256,bytes)": {
        "details": "See {IERC1155-safeTransferFrom}."
      },
      "setApprovalForAll(address,bool)": {
        "details": "See {IERC1155-setApprovalForAll}."
      },
      "supportsInterface(bytes4)": {
        "details": "See {IERC165-supportsInterface}."
      },
      "uri(uint256)": {
        "details": "See {IERC1155MetadataURI-uri}. This implementation returns the same URI for *all* token types. It relies on the token type ID substitution mechanism https://eips.ethereum.org/EIPS/eip-1155#metadata[defined in the EIP]. Clients calling this function must replace the `\\{id\\}` substring with the actual token type ID."
      }
    },
    "version": 1
  },
  "userdoc": {
    "kind": "user",
    "methods": {},
    "version": 1
  }
}