{
  "contractName": "Nftletter",
  "abi": [
    {
      "inputs": [],
      "stateMutability": "nonpayable",
      "type": "constructor"
    },
    {
      "anonymous": false,
      "inputs": [
        {
          "indexed": true,
          "internalType": "address",
          "name": "account",
          "type": "address"
        },
        {
          "indexed": true,
          "internalType": "address",
          "name": "operator",
          "type": "address"
        },
        {
          "indexed": false,
          "internalType": "bool",
          "name": "approved",
          "type": "bool"
        }
      ],
      "name": "ApprovalForAll",
      "type": "event"
    },
    {
      "anonymous": false,
      "inputs": [
        {
          "indexed": true,
          "internalType": "address",
          "name": "operator",
          "type": "address"
        },
        {
          "indexed": true,
          "internalType": "address",
          "name": "from",
          "type": "address"
        },
        {
          "indexed": true,
          "internalType": "address",
          "name": "to",
          "type": "address"
        },
        {
          "indexed": false,
          "internalType": "uint256[]",
          "name": "ids",
          "type": "uint256[]"
        },
        {
          "indexed": false,
          "internalType": "uint256[]",
          "name": "values",
          "type": "uint256[]"
        }
      ],
      "name": "TransferBatch",
      "type": "event"
    },
    {
      "anonymous": false,
      "inputs": [
        {
          "indexed": true,
          "internalType": "address",
          "name": "operator",
          "type": "address"
        },
        {
          "indexed": true,
          "internalType": "address",
          "name": "from",
          "type": "address"
        },
        {
          "indexed": true,
          "internalType": "address",
          "name": "to",
          "type": "address"
        },
        {
          "indexed": false,
          "internalType": "uint256",
          "name": "id",
          "type": "uint256"
        },
        {
          "indexed": false,
          "internalType": "uint256",
          "name": "value",
          "type": "uint256"
        }
      ],
      "name": "TransferSingle",
      "type": "event"
    },
    {
      "anonymous": false,
      "inputs": [
        {
          "indexed": false,
          "internalType": "string",
          "name": "value",
          "type": "string"
        },
        {
          "indexed": true,
          "internalType": "uint256",
          "name": "id",
          "type": "uint256"
        }
      ],
      "name": "URI",
      "type": "event"
    },
    {
      "stateMutability": "nonpayable",
      "type": "fallback"
    },
    {
      "inputs": [
        {
          "internalType": "address",
          "name": "account",
          "type": "address"
        },
        {
          "internalType": "uint256",
          "name": "id",
          "type": "uint256"
        }
      ],
      "name": "balanceOf",
      "outputs": [
        {
          "internalType": "uint256",
          "name": "",
          "type": "uint256"
        }
      ],
      "stateMutability": "view",
      "type": "function",
      "constant": true
    },
    {
      "inputs": [
        {
          "internalType": "address[]",
          "name": "accounts",
          "type": "address[]"
        },
        {
          "internalType": "uint256[]",
          "name": "ids",
          "type": "uint256[]"
        }
      ],
      "name": "balanceOfBatch",
      "outputs": [
        {
          "internalType": "uint256[]",
          "name": "",
          "type": "uint256[]"
        }
      ],
      "stateMutability": "view",
      "type": "function",
      "constant": true
    },
    {
      "inputs": [
        {
          "internalType": "address",
          "name": "account",
          "type": "address"
        },
        {
          "internalType": "address",
          "name": "operator",
          "type": "address"
        }
      ],
      "name": "isApprovedForAll",
      "outputs": [
        {
          "internalType": "bool",
          "name": "",
          "type": "bool"
        }
      ],
      "stateMutability": "view",
      "type": "function",
      "constant": true
    },
    {
      "inputs": [
        {
          "internalType": "address",
          "name": "from",
          "type": "address"
        },
        {
          "internalType": "address",
          "name": "to",
          "type": "address"
        },
        {
          "internalType": "uint256[]",
          "name": "ids",
          "type": "uint256[]"
        },
        {
          "internalType": "uint256[]",
          "name": "amounts",
          "type": "uint256[]"
        },
        {
          "internalType": "bytes",
          "name": "data",
          "type": "bytes"
        }
      ],
      "name": "safeBatchTransferFrom",
      "outputs": [],
      "stateMutability": "nonpayable",
      "type": "function"
    },
    {
      "inputs": [
        {
          "internalType": "address",
          "name": "from",
          "type": "address"
        },
        {
          "internalType": "address",
          "name": "to",
          "type": "address"
        },
        {
          "internalType": "uint256",
          "name": "id",
          "type": "uint256"
        },
        {
          "internalType": "uint256",
          "name": "amount",
          "type": "uint256"
        },
        {
          "internalType": "bytes",
          "name": "data",
          "type": "bytes"
        }
      ],
      "name": "safeTransferFrom",
      "outputs": [],
      "stateMutability": "nonpayable",
      "type": "function"
    },
    {
      "inputs": [
        {
          "internalType": "address",
          "name": "operator",
          "type": "address"
        },
        {
          "internalType": "bool",
          "name": "approved",
          "type": "bool"
        }
      ],
      "name": "setApprovalForAll",
      "outputs": [],
      "stateMutability": "nonpayable",
      "type": "function"
    },
    {
      "inputs": [
        {
          "internalType": "bytes4",
          "name": "interfaceId",
          "type": "bytes4"
        }
      ],
      "name": "supportsInterface",
      "outputs": [
        {
          "internalType": "bool",
          "name": "",
          "type": "bool"
        }
      ],
      "stateMutability": "view",
      "type": "function",
      "constant": true
    },
    {
      "inputs": [
        {
          "internalType": "uint256",
          "name": "",
          "type": "uint256"
        }
      ],
      "name": "uri",
      "outputs": [
        {
          "internalType": "string",
          "name": "",
          "type": "string"
        }
      ],
      "stateMutability": "view",
      "type": "function",
      "constant": true
    },
    {
      "inputs": [
        {
          "internalType": "string",
          "name": "_state",
          "type": "string"
        }
      ],
      "name": "updateState",
      "outputs": [
        {
          "internalType": "bool",
          "name": "",
          "type": "bool"
        }
      ],
      "stateMutability": "nonpayable",
      "type": "function"
    },
    {
      "inputs": [
        {
          "internalType": "uint256",
          "name": "_amount",
          "type": "uint256"
        },
        {
          "internalType": "bytes",
          "name": "_data",
          "type": "bytes"
        }
      ],
      "name": "mintLetter",
      "outputs": [
        {
          "internalType": "bool",
          "name": "",
          "type": "bool"
        }
      ],
      "stateMutability": "nonpayable",
      "type": "function"
    }
  ],
  "bytecode": "0x60806040523480156200001157600080fd5b506040518060400160405280601181526020017f496d70616374204e4654204c65747465720000000000000000000000000000008152506200005981620001a060201b60201c565b5033600360006101000a81548173ffffffffffffffffffffffffffffffffffffffff021916908373ffffffffffffffffffffffffffffffffffffffff1602179055506004600360009054906101000a900473ffffffffffffffffffffffffffffffffffffffff169080600181540180825580915050600190039060005260206000200160009091909190916101000a81548173ffffffffffffffffffffffffffffffffffffffff021916908373ffffffffffffffffffffffffffffffffffffffff160217905550600160076000600360009054906101000a900473ffffffffffffffffffffffffffffffffffffffff1673ffffffffffffffffffffffffffffffffffffffff1673ffffffffffffffffffffffffffffffffffffffff16815260200190815260200160002060006101000a81548160ff021916908315150217905550620002d0565b8060029080519060200190620001b8929190620001bc565b5050565b828054620001ca906200029b565b90600052602060002090601f016020900481019282620001ee57600085556200023a565b82601f106200020957805160ff19168380011785556200023a565b828001600101855582156200023a579182015b82811115620002395782518255916020019190600101906200021c565b5b5090506200024991906200024d565b5090565b5b80821115620002685760008160009055506001016200024e565b5090565b7f4e487b7100000000000000000000000000000000000000000000000000000000600052602260045260246000fd5b60006002820490506001821680620002b457607f821691505b602082108103620002ca57620002c96200026c565b5b50919050565b612a6a80620002e06000396000f3fe608060405234801561001057600080fd5b50600436106100a15760003560e01c8063728cf9ef11610066578063728cf9ef1461018057806379ff2e6d146101b0578063a22cb465146101e0578063e985e9c5146101fc578063f242432a1461022c576100a2565b8062fdd58e146100a457806301ffc9a7146100d45780630e89341c146101045780632eb2c2d6146101345780634e1273f414610150576100a2565b5b005b6100be60048036038101906100b9919061168e565b610248565b6040516100cb91906116dd565b60405180910390f35b6100ee60048036038101906100e99190611750565b610310565b6040516100fb9190611798565b60405180910390f35b61011e600480360381019061011991906117b3565b6103f2565b60405161012b9190611879565b60405180910390f35b61014e60048036038101906101499190611a98565b610486565b005b61016a60048036038101906101659190611c2a565b610527565b6040516101779190611d60565b60405180910390f35b61019a60048036038101906101959190611d82565b610640565b6040516101a79190611798565b60405180910390f35b6101ca60048036038101906101c59190611e7f565b61067c565b6040516101d79190611798565b60405180910390f35b6101fa60048036038101906101f59190611ef4565b61069e565b005b61021660048036038101906102119190611f34565b6106b4565b6040516102239190611798565b60405180910390f35b61024660048036038101906102419190611f74565b610748565b005b60008073ffffffffffffffffffffffffffffffffffffffff168373ffffffffffffffffffffffffffffffffffffffff16036102b8576040517f08c379a00000000000000000000000000000000000000000000000000000000081526004016102af9061207d565b60405180910390fd5b60008083815260200190815260200160002060008473ffffffffffffffffffffffffffffffffffffffff1673ffffffffffffffffffffffffffffffffffffffff16815260200190815260200160002054905092915050565b60007fd9b67a26000000000000000000000000000000000000000000000000000000007bffffffffffffffffffffffffffffffffffffffffffffffffffffffff1916827bffffffffffffffffffffffffffffffffffffffffffffffffffffffff191614806103db57507f0e89341c000000000000000000000000000000000000000000000000000000007bffffffffffffffffffffffffffffffffffffffffffffffffffffffff1916827bffffffffffffffffffffffffffffffffffffffffffffffffffffffff1916145b806103eb57506103ea826107e9565b5b9050919050565b606060028054610401906120cc565b80601f016020809104026020016040519081016040528092919081815260200182805461042d906120cc565b801561047a5780601f1061044f5761010080835404028352916020019161047a565b820191906000526020600020905b81548152906001019060200180831161045d57829003601f168201915b50505050509050919050565b61048e610853565b73ffffffffffffffffffffffffffffffffffffffff168573ffffffffffffffffffffffffffffffffffffffff1614806104d457506104d3856104ce610853565b6106b4565b5b610513576040517f08c379a000000000000000000000000000000000000000000000000000000000815260040161050a9061216f565b60405180910390fd5b610520858585858561085b565b5050505050565b6060815183511461056d576040517f08c379a000000000000000000000000000000000000000000000000000000000815260040161056490612201565b60405180910390fd5b6000835167ffffffffffffffff81111561058a576105896118a0565b5b6040519080825280602002602001820160405280156105b85781602001602082028036833780820191505090505b50905060005b8451811015610635576106058582815181106105dd576105dc612221565b5b60200260200101518583815181106105f8576105f7612221565b5b6020026020010151610248565b82828151811061061857610617612221565b5b6020026020010181815250508061062e9061227f565b90506105be565b508091505092915050565b6000610672600560009054906101000a900473ffffffffffffffffffffffffffffffffffffffff166006548585610b6e565b6001905092915050565b60008160089080519060200190610694929190611543565b5060019050919050565b6106b06106a9610853565b8383610d03565b5050565b6000600160008473ffffffffffffffffffffffffffffffffffffffff1673ffffffffffffffffffffffffffffffffffffffff16815260200190815260200160002060008373ffffffffffffffffffffffffffffffffffffffff1673ffffffffffffffffffffffffffffffffffffffff16815260200190815260200160002060009054906101000a900460ff16905092915050565b610750610853565b73ffffffffffffffffffffffffffffffffffffffff168573ffffffffffffffffffffffffffffffffffffffff161480610796575061079585610790610853565b6106b4565b5b6107d5576040517f08c379a00000000000000000000000000000000000000000000000000000000081526004016107cc90612339565b60405180910390fd5b6107e28585858585610e6f565b5050505050565b60007f01ffc9a7000000000000000000000000000000000000000000000000000000007bffffffffffffffffffffffffffffffffffffffffffffffffffffffff1916827bffffffffffffffffffffffffffffffffffffffffffffffffffffffff1916149050919050565b600033905090565b815183511461089f576040517f08c379a0000000000000000000000000000000000000000000000000000000008152600401610896906123cb565b60405180910390fd5b600073ffffffffffffffffffffffffffffffffffffffff168473ffffffffffffffffffffffffffffffffffffffff160361090e576040517f08c379a00000000000000000000000000000000000000000000000000000000081526004016109059061245d565b60405180910390fd5b6000610918610853565b90506109288187878787876110f0565b60005b8451811015610ad957600085828151811061094957610948612221565b5b60200260200101519050600085838151811061096857610967612221565b5b60200260200101519050600080600084815260200190815260200160002060008b73ffffffffffffffffffffffffffffffffffffffff1673ffffffffffffffffffffffffffffffffffffffff16815260200190815260200160002054905081811015610a09576040517f08c379a0000000000000000000000000000000000000000000000000000000008152600401610a00906124ef565b60405180910390fd5b81810360008085815260200190815260200160002060008c73ffffffffffffffffffffffffffffffffffffffff1673ffffffffffffffffffffffffffffffffffffffff168152602001908152602001600020819055508160008085815260200190815260200160002060008b73ffffffffffffffffffffffffffffffffffffffff1673ffffffffffffffffffffffffffffffffffffffff1681526020019081526020016000206000828254610abe919061250f565b9250508190555050505080610ad29061227f565b905061092b565b508473ffffffffffffffffffffffffffffffffffffffff168673ffffffffffffffffffffffffffffffffffffffff168273ffffffffffffffffffffffffffffffffffffffff167f4a39dc06d4c0dbc64b70af90fd698a233a518aa5d07e595d983b8c0526c8f7fb8787604051610b50929190612565565b60405180910390a4610b668187878787876110f8565b505050505050565b600073ffffffffffffffffffffffffffffffffffffffff168473ffffffffffffffffffffffffffffffffffffffff1603610bdd576040517f08c379a0000000000000000000000000000000000000000000000000000000008152600401610bd49061260e565b60405180910390fd5b6000610be7610853565b9050610c0881600087610bf9886112cf565b610c02886112cf565b876110f0565b8260008086815260200190815260200160002060008773ffffffffffffffffffffffffffffffffffffffff1673ffffffffffffffffffffffffffffffffffffffff1681526020019081526020016000206000828254610c67919061250f565b925050819055508473ffffffffffffffffffffffffffffffffffffffff16600073ffffffffffffffffffffffffffffffffffffffff168273ffffffffffffffffffffffffffffffffffffffff167fc3d58168c5ae7397731d063d5bbf3d657854427343f4c083240f7aacaa2d0f628787604051610ce592919061262e565b60405180910390a4610cfc81600087878787611349565b5050505050565b8173ffffffffffffffffffffffffffffffffffffffff168373ffffffffffffffffffffffffffffffffffffffff1603610d71576040517f08c379a0000000000000000000000000000000000000000000000000000000008152600401610d68906126c9565b60405180910390fd5b80600160008573ffffffffffffffffffffffffffffffffffffffff1673ffffffffffffffffffffffffffffffffffffffff16815260200190815260200160002060008473ffffffffffffffffffffffffffffffffffffffff1673ffffffffffffffffffffffffffffffffffffffff16815260200190815260200160002060006101000a81548160ff0219169083151502179055508173ffffffffffffffffffffffffffffffffffffffff168373ffffffffffffffffffffffffffffffffffffffff167f17307eab39ab6107e8899845ad3d59bd9653f200f220920489ca2b5937696c3183604051610e629190611798565b60405180910390a3505050565b600073ffffffffffffffffffffffffffffffffffffffff168473ffffffffffffffffffffffffffffffffffffffff1603610ede576040517f08c379a0000000000000000000000000000000000000000000000000000000008152600401610ed59061245d565b60405180910390fd5b6000610ee8610853565b9050610f08818787610ef9886112cf565b610f02886112cf565b876110f0565b600080600086815260200190815260200160002060008873ffffffffffffffffffffffffffffffffffffffff1673ffffffffffffffffffffffffffffffffffffffff16815260200190815260200160002054905083811015610f9f576040517f08c379a0000000000000000000000000000000000000000000000000000000008152600401610f96906124ef565b60405180910390fd5b83810360008087815260200190815260200160002060008973ffffffffffffffffffffffffffffffffffffffff1673ffffffffffffffffffffffffffffffffffffffff168152602001908152602001600020819055508360008087815260200190815260200160002060008873ffffffffffffffffffffffffffffffffffffffff1673ffffffffffffffffffffffffffffffffffffffff1681526020019081526020016000206000828254611054919061250f565b925050819055508573ffffffffffffffffffffffffffffffffffffffff168773ffffffffffffffffffffffffffffffffffffffff168373ffffffffffffffffffffffffffffffffffffffff167fc3d58168c5ae7397731d063d5bbf3d657854427343f4c083240f7aacaa2d0f6288886040516110d192919061262e565b60405180910390a46110e7828888888888611349565b50505050505050565b505050505050565b6111178473ffffffffffffffffffffffffffffffffffffffff16611520565b156112c7578373ffffffffffffffffffffffffffffffffffffffff1663bc197c8187878686866040518663ffffffff1660e01b815260040161115d95949392919061274d565b6020604051808303816000875af192505050801561119957506040513d601f19601f8201168201806040525081019061119691906127ca565b60015b61123e576111a5612804565b806308c379a00361120157506111b9612826565b806111c45750611203565b806040517f08c379a00000000000000000000000000000000000000000000000000000000081526004016111f89190611879565b60405180910390fd5b505b6040517f08c379a000000000000000000000000000000000000000000000000000000000815260040161123590612928565b60405180910390fd5b63bc197c8160e01b7bffffffffffffffffffffffffffffffffffffffffffffffffffffffff1916817bffffffffffffffffffffffffffffffffffffffffffffffffffffffff1916146112c5576040517f08c379a00000000000000000000000000000000000000000000000000000000081526004016112bc906129ba565b60405180910390fd5b505b505050505050565b60606000600167ffffffffffffffff8111156112ee576112ed6118a0565b5b60405190808252806020026020018201604052801561131c5781602001602082028036833780820191505090505b509050828160008151811061133457611333612221565b5b60200260200101818152505080915050919050565b6113688473ffffffffffffffffffffffffffffffffffffffff16611520565b15611518578373ffffffffffffffffffffffffffffffffffffffff1663f23a6e6187878686866040518663ffffffff1660e01b81526004016113ae9594939291906129da565b6020604051808303816000875af19250505080156113ea57506040513d601f19601f820116820180604052508101906113e791906127ca565b60015b61148f576113f6612804565b806308c379a003611452575061140a612826565b806114155750611454565b806040517f08c379a00000000000000000000000000000000000000000000000000000000081526004016114499190611879565b60405180910390fd5b505b6040517f08c379a000000000000000000000000000000000000000000000000000000000815260040161148690612928565b60405180910390fd5b63f23a6e6160e01b7bffffffffffffffffffffffffffffffffffffffffffffffffffffffff1916817bffffffffffffffffffffffffffffffffffffffffffffffffffffffff191614611516576040517f08c379a000000000000000000000000000000000000000000000000000000000815260040161150d906129ba565b60405180910390fd5b505b505050505050565b6000808273ffffffffffffffffffffffffffffffffffffffff163b119050919050565b82805461154f906120cc565b90600052602060002090601f01602090048101928261157157600085556115b8565b82601f1061158a57805160ff19168380011785556115b8565b828001600101855582156115b8579182015b828111156115b757825182559160200191906001019061159c565b5b5090506115c591906115c9565b5090565b5b808211156115e25760008160009055506001016115ca565b5090565b6000604051905090565b600080fd5b600080fd5b600073ffffffffffffffffffffffffffffffffffffffff82169050919050565b6000611625826115fa565b9050919050565b6116358161161a565b811461164057600080fd5b50565b6000813590506116528161162c565b92915050565b6000819050919050565b61166b81611658565b811461167657600080fd5b50565b60008135905061168881611662565b92915050565b600080604083850312156116a5576116a46115f0565b5b60006116b385828601611643565b92505060206116c485828601611679565b9150509250929050565b6116d781611658565b82525050565b60006020820190506116f260008301846116ce565b92915050565b60007fffffffff0000000000000000000000000000000000000000000000000000000082169050919050565b61172d816116f8565b811461173857600080fd5b50565b60008135905061174a81611724565b92915050565b600060208284031215611766576117656115f0565b5b60006117748482850161173b565b91505092915050565b60008115159050919050565b6117928161177d565b82525050565b60006020820190506117ad6000830184611789565b92915050565b6000602082840312156117c9576117c86115f0565b5b60006117d784828501611679565b91505092915050565b600081519050919050565b600082825260208201905092915050565b60005b8381101561181a5780820151818401526020810190506117ff565b83811115611829576000848401525b50505050565b6000601f19601f8301169050919050565b600061184b826117e0565b61185581856117eb565b93506118658185602086016117fc565b61186e8161182f565b840191505092915050565b600060208201905081810360008301526118938184611840565b905092915050565b600080fd5b7f4e487b7100000000000000000000000000000000000000000000000000000000600052604160045260246000fd5b6118d88261182f565b810181811067ffffffffffffffff821117156118f7576118f66118a0565b5b80604052505050565b600061190a6115e6565b905061191682826118cf565b919050565b600067ffffffffffffffff821115611936576119356118a0565b5b602082029050602081019050919050565b600080fd5b600061195f61195a8461191b565b611900565b9050808382526020820190506020840283018581111561198257611981611947565b5b835b818110156119ab57806119978882611679565b845260208401935050602081019050611984565b5050509392505050565b600082601f8301126119ca576119c961189b565b5b81356119da84826020860161194c565b91505092915050565b600080fd5b600067ffffffffffffffff821115611a0357611a026118a0565b5b611a0c8261182f565b9050602081019050919050565b82818337600083830152505050565b6000611a3b611a36846119e8565b611900565b905082815260208101848484011115611a5757611a566119e3565b5b611a62848285611a19565b509392505050565b600082601f830112611a7f57611a7e61189b565b5b8135611a8f848260208601611a28565b91505092915050565b600080600080600060a08688031215611ab457611ab36115f0565b5b6000611ac288828901611643565b9550506020611ad388828901611643565b945050604086013567ffffffffffffffff811115611af457611af36115f5565b5b611b00888289016119b5565b935050606086013567ffffffffffffffff811115611b2157611b206115f5565b5b611b2d888289016119b5565b925050608086013567ffffffffffffffff811115611b4e57611b4d6115f5565b5b611b5a88828901611a6a565b9150509295509295909350565b600067ffffffffffffffff821115611b8257611b816118a0565b5b602082029050602081019050919050565b6000611ba6611ba184611b67565b611900565b90508083825260208201905060208402830185811115611bc957611bc8611947565b5b835b81811015611bf25780611bde8882611643565b845260208401935050602081019050611bcb565b5050509392505050565b600082601f830112611c1157611c1061189b565b5b8135611c21848260208601611b93565b91505092915050565b60008060408385031215611c4157611c406115f0565b5b600083013567ffffffffffffffff811115611c5f57611c5e6115f5565b5b611c6b85828601611bfc565b925050602083013567ffffffffffffffff811115611c8c57611c8b6115f5565b5b611c98858286016119b5565b9150509250929050565b600081519050919050565b600082825260208201905092915050565b6000819050602082019050919050565b611cd781611658565b82525050565b6000611ce98383611cce565b60208301905092915050565b6000602082019050919050565b6000611d0d82611ca2565b611d178185611cad565b9350611d2283611cbe565b8060005b83811015611d53578151611d3a8882611cdd565b9750611d4583611cf5565b925050600181019050611d26565b5085935050505092915050565b60006020820190508181036000830152611d7a8184611d02565b905092915050565b60008060408385031215611d9957611d986115f0565b5b6000611da785828601611679565b925050602083013567ffffffffffffffff811115611dc857611dc76115f5565b5b611dd485828601611a6a565b9150509250929050565b600067ffffffffffffffff821115611df957611df86118a0565b5b611e028261182f565b9050602081019050919050565b6000611e22611e1d84611dde565b611900565b905082815260208101848484011115611e3e57611e3d6119e3565b5b611e49848285611a19565b509392505050565b600082601f830112611e6657611e6561189b565b5b8135611e76848260208601611e0f565b91505092915050565b600060208284031215611e9557611e946115f0565b5b600082013567ffffffffffffffff811115611eb357611eb26115f5565b5b611ebf84828501611e51565b91505092915050565b611ed18161177d565b8114611edc57600080fd5b50565b600081359050611eee81611ec8565b92915050565b60008060408385031215611f0b57611f0a6115f0565b5b6000611f1985828601611643565b9250506020611f2a85828601611edf565b9150509250929050565b60008060408385031215611f4b57611f4a6115f0565b5b6000611f5985828601611643565b9250506020611f6a85828601611643565b9150509250929050565b600080600080600060a08688031215611f9057611f8f6115f0565b5b6000611f9e88828901611643565b9550506020611faf88828901611643565b9450506040611fc088828901611679565b9350506060611fd188828901611679565b925050608086013567ffffffffffffffff811115611ff257611ff16115f5565b5b611ffe88828901611a6a565b9150509295509295909350565b7f455243313135353a2062616c616e636520717565727920666f7220746865207a60008201527f65726f2061646472657373000000000000000000000000000000000000000000602082015250565b6000612067602b836117eb565b91506120728261200b565b604082019050919050565b600060208201905081810360008301526120968161205a565b9050919050565b7f4e487b7100000000000000000000000000000000000000000000000000000000600052602260045260246000fd5b600060028204905060018216806120e457607f821691505b6020821081036120f7576120f661209d565b5b50919050565b7f455243313135353a207472616e736665722063616c6c6572206973206e6f742060008201527f6f776e6572206e6f7220617070726f7665640000000000000000000000000000602082015250565b60006121596032836117eb565b9150612164826120fd565b604082019050919050565b600060208201905081810360008301526121888161214c565b9050919050565b7f455243313135353a206163636f756e747320616e6420696473206c656e67746860008201527f206d69736d617463680000000000000000000000000000000000000000000000602082015250565b60006121eb6029836117eb565b91506121f68261218f565b604082019050919050565b6000602082019050818103600083015261221a816121de565b9050919050565b7f4e487b7100000000000000000000000000000000000000000000000000000000600052603260045260246000fd5b7f4e487b7100000000000000000000000000000000000000000000000000000000600052601160045260246000fd5b600061228a82611658565b91507fffffffffffffffffffffffffffffffffffffffffffffffffffffffffffffffff82036122bc576122bb612250565b5b600182019050919050565b7f455243313135353a2063616c6c6572206973206e6f74206f776e6572206e6f7260008201527f20617070726f7665640000000000000000000000000000000000000000000000602082015250565b60006123236029836117eb565b915061232e826122c7565b604082019050919050565b6000602082019050818103600083015261235281612316565b9050919050565b7f455243313135353a2069647320616e6420616d6f756e7473206c656e6774682060008201527f6d69736d61746368000000000000000000000000000000000000000000000000602082015250565b60006123b56028836117eb565b91506123c082612359565b604082019050919050565b600060208201905081810360008301526123e4816123a8565b9050919050565b7f455243313135353a207472616e7366657220746f20746865207a65726f20616460008201527f6472657373000000000000000000000000000000000000000000000000000000602082015250565b60006124476025836117eb565b9150612452826123eb565b604082019050919050565b600060208201905081810360008301526124768161243a565b9050919050565b7f455243313135353a20696e73756666696369656e742062616c616e636520666f60008201527f72207472616e7366657200000000000000000000000000000000000000000000602082015250565b60006124d9602a836117eb565b91506124e48261247d565b604082019050919050565b60006020820190508181036000830152612508816124cc565b9050919050565b600061251a82611658565b915061252583611658565b9250827fffffffffffffffffffffffffffffffffffffffffffffffffffffffffffffffff0382111561255a57612559612250565b5b828201905092915050565b6000604082019050818103600083015261257f8185611d02565b905081810360208301526125938184611d02565b90509392505050565b7f455243313135353a206d696e7420746f20746865207a65726f2061646472657360008201527f7300000000000000000000000000000000000000000000000000000000000000602082015250565b60006125f86021836117eb565b91506126038261259c565b604082019050919050565b60006020820190508181036000830152612627816125eb565b9050919050565b600060408201905061264360008301856116ce565b61265060208301846116ce565b9392505050565b7f455243313135353a2073657474696e6720617070726f76616c2073746174757360008201527f20666f722073656c660000000000000000000000000000000000000000000000602082015250565b60006126b36029836117eb565b91506126be82612657565b604082019050919050565b600060208201905081810360008301526126e2816126a6565b9050919050565b6126f28161161a565b82525050565b600081519050919050565b600082825260208201905092915050565b600061271f826126f8565b6127298185612703565b93506127398185602086016117fc565b6127428161182f565b840191505092915050565b600060a08201905061276260008301886126e9565b61276f60208301876126e9565b81810360408301526127818186611d02565b905081810360608301526127958185611d02565b905081810360808301526127a98184612714565b90509695505050505050565b6000815190506127c481611724565b92915050565b6000602082840312156127e0576127df6115f0565b5b60006127ee848285016127b5565b91505092915050565b60008160e01c9050919050565b600060033d11156128235760046000803e6128206000516127f7565b90505b90565b600060443d106128b3576128386115e6565b60043d036004823e80513d602482011167ffffffffffffffff821117156128605750506128b3565b808201805167ffffffffffffffff81111561287e57505050506128b3565b80602083010160043d03850181111561289b5750505050506128b3565b6128aa826020018501866118cf565b82955050505050505b90565b7f455243313135353a207472616e7366657220746f206e6f6e204552433131353560008201527f526563656976657220696d706c656d656e746572000000000000000000000000602082015250565b60006129126034836117eb565b915061291d826128b6565b604082019050919050565b6000602082019050818103600083015261294181612905565b9050919050565b7f455243313135353a204552433131353552656365697665722072656a6563746560008201527f6420746f6b656e73000000000000000000000000000000000000000000000000602082015250565b60006129a46028836117eb565b91506129af82612948565b604082019050919050565b600060208201905081810360008301526129d381612997565b9050919050565b600060a0820190506129ef60008301886126e9565b6129fc60208301876126e9565b612a0960408301866116ce565b612a1660608301856116ce565b8181036080830152612a288184612714565b9050969550505050505056fea2646970667358221220062beb4be393607f2a7e7da6438a2511f3cde798ba6a4f2cfb0995067035897764736f6c634300080d0033",
  "immutableReferences": {},
  "source": "pragma solidity ^0.8.7;\n\nimport \"@openzeppelin/contracts/token/ERC1155/ERC1155.sol\";\n\ncontract Nftletter is ERC1155 {\n\n    address internal admin;\n    address[] internal moderators;\n    address distro;\n    uint256 n;\n\n    mapping(address => bool) internal isMod;\n\n    string internal headState;\n\n    constructor() ERC1155(\"Impact NFT Letter\") {\n        admin = msg.sender;\n        moderators.push(admin);\n        isMod[admin] = true;\n    }\n\n    function updateState(string memory _state) external returns(bool){\n        headState = _state;\n        return true;\n    }\n\n    function mintLetter(uint256 _amount, bytes memory _data) external returns(bool) {\n        \n        _mint(distro,n,_amount,_data);\n        return true;\n    }\n\n    fallback() external {\n\n    }\n}",
  "sourcePath": "/Users/jediswag/Documents/web3/goldmansucks/impactMarketList/contracts/Nftletter.sol",
  "compiler": {
    "name": "solc",
    "version": "0.8.13+commit.abaa5c0e.Emscripten.clang"
  },
  "schemaVersion": "3.4.4",
  "updatedAt": "2022-03-29T11:00:24.848Z",
  "networkType": "ethereum",
  "devdoc": {
    "kind": "dev",
    "methods": {
      "balanceOf(address,uint256)": {
        "details": "See {IERC1155-balanceOf}. Requirements: - `account` cannot be the zero address."
      },
      "balanceOfBatch(address[],uint256[])": {
        "details": "See {IERC1155-balanceOfBatch}. Requirements: - `accounts` and `ids` must have the same length."
      },
      "isApprovedForAll(address,address)": {
        "details": "See {IERC1155-isApprovedForAll}."
      },
      "safeBatchTransferFrom(address,address,uint256[],uint256[],bytes)": {
        "details": "See {IERC1155-safeBatchTransferFrom}."
      },
      "safeTransferFrom(address,address,uint256,uint256,bytes)": {
        "details": "See {IERC1155-safeTransferFrom}."
      },
      "setApprovalForAll(address,bool)": {
        "details": "See {IERC1155-setApprovalForAll}."
      },
      "supportsInterface(bytes4)": {
        "details": "See {IERC165-supportsInterface}."
      },
      "uri(uint256)": {
        "details": "See {IERC1155MetadataURI-uri}. This implementation returns the same URI for *all* token types. It relies on the token type ID substitution mechanism https://eips.ethereum.org/EIPS/eip-1155#metadata[defined in the EIP]. Clients calling this function must replace the `\\{id\\}` substring with the actual token type ID."
      }
    },
    "version": 1
  },
  "userdoc": {
    "kind": "user",
    "methods": {},
    "version": 1
  }
}